:100000000C9435000C945D000C945D000C945D0024
:100010000C945D000C945D000C945D000C945D00EC
:100020000C945D000C945D000C945D000C945D00DC
:100030000C945D000C945D000C945D000C945D00CC
:100040000C945D000C945D000C9434010C940B0135
:100050000C945D010C945D000C945E010C945D00A9
:100060000C945D000C945D00FE0211241FBECFEFC6
:10007000D8E0DEBFCDBF11E0A0E0B1E0ECE4F8E0F5
:1000800002C005900D92A833B107D9F721E0A8E38B
:10009000B1E001C01D92AE3DB207E1F710E0C5E34B
:1000A000D0E004C02197FE010E94E903C433D107C8
:1000B000C9F70E945F010C9424040C940000209165
:1000C000DA013091DB018091DC019091DD0128178C
:1000D000390731F48091C1008F7D8093C10008956C
:1000E000E091DC01F091DD01E656FE4F2081809128
:1000F000DC019091DD0183958F7390E09093DD0199
:100100008093DC012093C6000895CF93DF930F9274
:10011000CDB7DEB78091960190919701209198011B
:100120003091990183958F7390E082179307F9F0CE
:100130002091C600809196019091970183958F73CD
:1001400090E040919801509199018417950759F0DA
:10015000E0919601F0919701EA5AFE4F2083909327
:100160009701809396010F90DF91CF910895809130
:10017000C60089838981F7CF2091DA013091DB01B4
:100180004091DC015091DD0123952F7330E024175D
:10019000350791F32091DA013091DB0123952F731C
:1001A00030E04091DC015091DD012417350759F012
:1001B000E091DA01F091DB01E656FE4F8083309347
:1001C000DB012093DA018091C10080628093C1003D
:1001D00078940895CF93DF9300D000D0CDB7DEB7E9
:1001E00089839A836B837C83EB81FC81808181117D
:1001F00009C089819A810F900F900F900F90DF9125
:10020000CF9108952B813C812F5F3F4F2B833C83FF
:100210000E94BC00E9CF1F920F920FB60F921124DB
:100220002F933F934F935F936F937F938F939F93FE
:10023000AF93BF93EF93FF93E0915401F091550179
:10024000309709F00995FF91EF91BF91AF919F9180
:100250008F917F916F915F914F913F912F910F906F
:100260000FBE0F901F9018951F920F920FB60F920E
:1002700011242F933F934F935F936F937F938F93AB
:100280009F93AF93BF93EF93FF93E0915201F0914F
:100290005301309709F00995FF91EF91BF91AF910C
:1002A0009F918F917F916F915F914F913F912F918E
:1002B0000F900FBE0F901F90189518951895CDB7F9
:1002C000DEB765970FB6F894DEBF0FBECDBF40E82E
:1002D00055E270E04093490150934A0110924B015E
:1002E00010924C0183E080934D01109248011092CE
:1002F0004F0181E0809351018093500110924E0193
:10030000809164008D7F809364009091480180917A
:10031000C2008F738093C2008091C200892B8093AA
:10032000C20091118DC08091C2008E7F8093C20067
:10033000809164008D7F80936400E0904901F0908B
:100340004A0100914B0110914C011092C50010928E
:10035000C400809161008F7040E054E264EF6B0153
:100360005A0104C0D694C794B794A7948A95D2F73B
:10037000AA8ABB8ACC8ADD8A8091C20086FD6DC0C4
:10038000807CC1F5B501C6019701A801E4E0220F08
:10039000331F441F551FEA95D1F70E9495032295FC
:1003A0003295307F3227207F322740E050E0B50180
:1003B000C6010E949503A4E6B0E00E94B70397012E
:1003C000A8010E949503245631091AF4319521950C
:1003D000310924303105D4F18091C400811109C064
:1003E0008091C500811105C08091C000826080931A
:1003F000C000A8E0B0E09701A8010E94B7039B01EC
:10040000AC016A897B898C899D890E949503215062
:1004100031093093C5002093C40080914D01823092
:1004200009F4D2C008F58111C6C08091C200897F4D
:100430008093C2008091C1008B7F8093C1001AC05D
:100440008091C0008D7F8093C00072CF8091C000EA
:100450008D7F8093C000A0E1CDCF8091C0008D7FC3
:100460008093C000A2E0C6CF833009F4B6C08430C8
:1004700009F4B7C080914F019091C2009F7C909386
:10048000C2009091C200892B8093C20080914E01DE
:10049000813009F0AFC08091C20088608093C200B3
:1004A00085E890E080935201909353018091C100C0
:1004B00080688093C10078948FE590E08093540128
:1004C000909355018091C10080628093C10078941F
:1004D00080915101811529F08091C1008061809344
:1004E000C10080915001811529F08091C100886080
:1004F0008093C10061E071E080E091E00E94EA0039
:1005000062E271E00E94EA002D9800E010E04AE00B
:10051000BE016F5F7F4FC8010E94EF03BE016F5F96
:100520007F4F80E091E00E94EA0065E271E00E9466
:10053000EA00F999FECF8FB7F89412BD01BDF89A81
:100540008FBFF0B481E1E7E2F1E0DE0111960190A6
:100550000D928A95E1F780E30E94BC0088E70E9433
:10056000BC008F2D82958F70FE013196E80FF11D32
:1005700080810E94BC008F2D8F70FE013196E80FA4
:10058000F11D80810E94BC0062E271E080E091E098
:100590000E94EA002FEF81EE94E0215080409040CD
:1005A000E1F700C000000F5F1F4F011522E01207A6
:1005B00009F0ADCFAACF8091C2008B7F8093C2009B
:1005C0008091C200826034CF8091C20084608093A9
:1005D000C2008091C2008D7F2BCF8091C2008660C7
:1005E00027CF8091C20086608093C2008091C100B5
:1005F000846023CF8091C200877F50CFCF93DF9359
:1006000000D000D00F92CDB7DEB780914001898332
:10061000809141018A83809142018B8380914301C3
:100620008C83809144018D83B0914501F091460106
:10063000E091470129813A814B815C81682F7B2FB2
:100640008F2F9E2FA1E00E94C20320934001309380
:1006500041014093420150934301609344017093E0
:100660004501809346019093470129813A814B814E
:100670005C816D817B2F8F2F9E2FA0E00E94CE0387
:1006800041F41092DB011092DA011092DD01109218
:10069000DC01809138018983809139018A838091BE
:1006A0003A018B8380913B018C8380913C018D8347
:1006B000B0913D01F0913E01E0913F0129813A81E5
:1006C0004B815C81682F7B2F8F2F9E2FA1E00E9492
:1006D000C203209338013093390140933A0150937B
:1006E0003B0160933C0170933D0180933E019093E8
:1006F0003F0129813A814B815C816D817B2F8F2F56
:100700009E2FA0E00E94CE0341F410929701109218
:10071000960110929901109298010F900F900F90EE
:100720000F900F90DF91CF910895A1E21A2EAA1B8E
:10073000BB1BFD010DC0AA1FBB1FEE1FFF1FA21791
:10074000B307E407F50720F0A21BB30BE40BF50B8E
:10075000661F771F881F991F1A9469F76095709517
:10076000809590959B01AC01BD01CF0108950E9439
:10077000DA03A59F900DB49F900DA49F800D911D4D
:10078000112408950024A7FD00942A0F301D401D58
:10079000501D601D701D801D901D08950024A7FD33
:1007A00000942A1730054005500560057005800546
:1007B00090050895A29FB001B39FC001A39F700D43
:1007C000811D1124911DB29F700D811D1124911D59
:1007D0000895EE0FFF1F0590F491E02D0994BB27BB
:1007E0004A3031F4992322F4BDE2909581959F4FD0
:1007F0000C94FB03BB27FB015527AA27880F991FE1
:10080000AA1FA41710F0A41B83955051B9F7A05D3F
:10081000AA3308F0A95DA193009779F7B111B193BC
:100820001192CB010C941404DC01FC01672F71912F
:100830007723E1F7329704C07C916D9370836291C6
:0C084000AE17BF07C8F30895F894FFCF6F
:10084C000253657269616C20696E697469616C69C7
:10085C007A6564207375636365737366756C6C7904
:10086C002E000D0A00200030313233343536373843
:08087C003941424344454600A6
:00000001FF
