:100000000C9435000C945D000C945D000C945D0024
:100010000C945D000C945D000C9478000C944303E8
:100020000C946C030C941A030C94F1020C949F0230
:100030000C94C8020C9476020C9424020C944D0289
:100040000C94FB010C9489010C94CC000C94A3003B
:100050000C94F5000C94D2010C945D000C94AC034C
:100060000C945D000C945D00990811241FBECFEF25
:10007000D8E0DEBFCDBF11E0A0E0B1E0E2E9F4E1FD
:1000800002C005900D92AC35B107D9F722E0ACE57E
:10009000B1E001C01D92AE37B207E1F710E0C5E351
:1000A000D0E004C02197FE010E940C0AC433D1079E
:1000B000C9F70E9421060C94470A0C940000809115
:1000C000610190916201A0916301B0916401019678
:1000D000A11DB11D8093610190936201A093630102
:1000E000B0936401089580E283B90895FB010994F7
:1000F0001F920F920FB60F9211242F933F934F939D
:100100005F936F937F938F939F93AF93BF93EF937F
:10011000FF93E0917B02F0917C02309709F0099502
:10012000FF91EF91BF91AF919F918F917F916F91CF
:100130005F914F913F912F910F900FBE0F901F90A5
:100140001895089508951F920F920FB60F921124DB
:100150002F933F934F935F936F937F938F939F93CF
:10016000AF93BF93EF93FF93E0917502F091760206
:10017000309709F00995FF91EF91BF91AF919F9151
:100180008F917F916F915F914F913F912F910F9040
:100190000FBE0F901F9018951F920F920FB60F92DF
:1001A00011242F933F934F935F936F937F938F937C
:1001B0009F93AF93BF93EF93FF93E0917902F091F8
:1001C0007A02309709F00995FF91EF91BF91AF91B5
:1001D0009F918F917F916F915F914F913F912F915F
:1001E0000F900FBE0F901F9018951F920F920FB691
:1001F0000F9211242F933F934F935F936F937F93AD
:100200008F939F93AF93BF93EF93FF93E091770208
:10021000F0917802309709F00995FF91EF91BF9125
:10022000AF919F918F917F916F915F914F913F918E
:100230002F910F900FBE0F901F901895CF93DF93C3
:10024000CDB7DEB766970FB6F894DEBF0FBECDBF51
:1002500080E283B96AE071E080E091E00E94DD0411
:100260008D8B9E8B8091600191E0980F909360013F
:100270004AE0BE016F5F7F4F90E00E94120ABE010C
:100280006F5F7F4F8D899E890E94DD0463E175E079
:100290000E947600809160018B3070F088E40E94AB
:1002A00032041092600166960FB6F894DEBF0FBE5E
:1002B000CDBFDF91CF91089580917D02803451F0C0
:1002C00067E271E080E091E00E94DD0463E175E0A7
:1002D0000E9476002FEF89EF90E0215080409040FF
:1002E000E1F700C0000080E40E94320462E471E0A3
:1002F00080E091E00E94DD0463E175E00E947600F9
:1003000063E175E080E091E00E94760080E283B9CD
:10031000CACF1F920F920FB60F9211242F933F93C3
:100320004F935F936F937F938F939F93AF93BF93FD
:10033000EF93FF93E091EB01F091EC01309709F01E
:10034000099580915C0190915D01A0915E01B09151
:100350005F01816080935C0190935D01A0935E01D9
:10036000B0935F01FF91EF91BF91AF919F918F91FA
:100370007F916F915F914F913F912F910F900FBEA1
:100380000F901F90189585E00E944D0588E00E940F
:100390002E0580917C0087E00E942E050E94770543
:1003A0000C9481051F920F920FB60F9211242F9378
:1003B0003F934F935F936F937F938F939F93AF93ED
:1003C000BF93EF93FF93E091A101F091A2013097C9
:1003D00009F00995FF91EF91BF91AF919F918F9196
:1003E0007F916F915F914F913F912F910F900FBE31
:1003F0000F901F9018951F920F920FB60F92112415
:100400002F933F934F935F936F937F938F939F931C
:10041000AF93BF93EF93FF93E0919D01F0919E0105
:10042000309709F00995FF91EF91BF91AF919F919E
:100430008F917F916F915F914F913F912F910F908D
:100440000FBE0F901F9018951F920F920FB60F922C
:1004500011242F933F934F935F936F937F938F93C9
:100460009F93AF93BF93EF93FF93E0919B01F09124
:100470009C01309709F00995FF91EF91BF91AF91E1
:100480009F918F917F916F915F914F913F912F91AC
:100490000F900FBE0F901F9018951F920F920FB6DE
:1004A0000F9211242F933F934F935F936F937F93FA
:1004B0008F939F93AF93BF93EF93FF93E091990135
:1004C000F0919A01309709F00995FF91EF91BF9152
:1004D000AF919F918F917F916F915F914F913F91DC
:1004E0002F910F900FBE0F901F9018951F920F9293
:1004F0000FB60F9211242F933F934F935F936F93F7
:100500007F938F939F93AF93BF93EF93FF93E0916C
:100510009501F0919601309709F00995FF91EF91BF
:10052000BF91AF919F918F917F916F915F914F910B
:100530003F912F910F900FBE0F901F9018951F9213
:100540000F920FB60F9211242F933F934F935F9307
:100550006F937F938F939F93AF93BF93EF93FF938B
:10056000E0919301F0919401309709F00995FF9182
:10057000EF91BF91AF919F918F917F916F915F911B
:100580004F913F912F910F900FBE0F901F90189594
:100590001F920F920FB60F9211242F933F934F93F8
:1005A0005F936F937F938F939F93AF93BF93EF93DB
:1005B000FF93E0919101F0919201309709F0099534
:1005C000FF91EF91BF91AF919F918F917F916F912B
:1005D0005F914F913F912F910F900FBE0F901F9001
:1005E00018951F920F920FB60F9211242F933F93DD
:1005F0004F935F936F937F938F939F93AF93BF932B
:10060000EF93FF93E0918F01F0919001309709F003
:100610000995FF91EF91BF91AF919F918F917F913C
:100620006F915F914F913F912F910F900FBE0F905F
:100630001F9018951F920F920FB60F9211242F93AF
:100640003F934F935F936F937F938F939F93AF935A
:10065000BF93EF93FF93E0918C01F0918D01309760
:1006600009F00995FF91EF91BF91AF919F918F9103
:100670007F916F915F914F913F912F910F900FBE9E
:100680000F901F9018951F920F920FB60F92112482
:100690002F933F934F935F936F937F938F939F938A
:1006A000AF93BF93EF93FF93E0918A01F0918B0199
:1006B000309709F00995FF91EF91BF91AF919F910C
:1006C0008F917F916F915F914F913F912F910F90FB
:1006D0000FBE0F901F9018951F920F920FB60F929A
:1006E00011242F933F934F935F936F937F938F9337
:1006F0009F93AF93BF93EF93FF93E0918801F091A5
:100700008901309709F00995FF91EF91BF91AF9161
:100710009F918F917F916F915F914F913F912F9119
:100720000F900FBE0F901F90189540E661E080E09B
:100730000E94DF058FE590E080938C0190938D01FE
:10074000E0E7F0E080818160808380E00E94D60550
:100750002F98279A2F9A08951F920F920FB60F92F3
:1007600011242F933F934F935F936F937F938F93B6
:100770009F93AF93BF93EF93FF93E0918501F09127
:100780008601309709F00995FF91EF91BF91AF91E4
:100790009F918F917F916F915F914F913F912F9199
:1007A0000F900FBE0F901F901895209171023091FD
:1007B000720280917302909174022817390731F404
:1007C0008091C1008F7D8093C1000895E0917302F4
:1007D000F0917402EF5CFD4F208180917302909143
:1007E000740283958F7390E09093740280937302E8
:1007F0002093C6000895CF93DF930F92CDB7DEB755
:1008000080912D0290912E0220912F023091300282
:1008100083958F7390E082179307F9F02091C600BB
:1008200080912D0290912E0283958F7390E04091DC
:100830002F02509130028417950759F0E0912D0254
:10084000F0912E02E351FE4F208390932E0280936D
:100850002D020F90DF91CF9108958091C60089837A
:100860008981F7CF80937D02E0E6F0E090812FB799
:10087000F894A89538E130839772892B80832FBF35
:100880000895CF92DF92EF92FF920F931F93CF9331
:10089000DF9300D000D0CDB7DEB76B017C011092A2
:1008A000C5001092C40060930101D09202018093B0
:1008B0000301F0920401809161008F7040E054E2E6
:1008C00064EF70E09B018A0104C036952795179567
:1008D00007958A95D2F709831A832B833C838091ED
:1008E000C20086FD63C0807CD1F5B801C9019601C4
:1008F000A701E4E0220F331F441F551FEA95D1F7EB
:100900000E94B80922953295307F3227207F322706
:1009100040E050E069817A818B819C810E94B80916
:10092000A4E6B0E00E94DA099601A7010E94B80986
:10093000245631091AF431952195310924303105B5
:1009400074F18091C400811109C08091C5008111AA
:1009500005C08091C00082608093C000A8E0B0E034
:100960009601A7010E94DA099B01AC0169817A8195
:100970008B819C810E94B809215031093093C500B8
:100980002093C4000F900F900F900F90DF91CF91A4
:100990001F910F91FF90EF90DF90CF90089580917D
:1009A000C0008D7F8093C000A0E1D9CF8091C000AE
:1009B0008D7F8093C000A2E0D2CFAC01FB0180818B
:1009C000811102C0CA0108953196209171023091BF
:1009D0007202609173027091740223952F7330E05C
:1009E0002617370791F320917102309172022395F7
:1009F0002F7330E0609173027091740226173707ED
:100A000059F0A0917102B0917202AF5CBD4F8C930E
:100A100030937202209371029091C1009062909382
:100A2000C1007894CCCFCF93DF9300D0CDB7DEB7A1
:100A300089839A8367E071E00E94DD0489819A814D
:100A40000F900F90DF91CF910895E4E6F0E0808160
:100A50008B7F80838CB580648CBD089590917A00E3
:100A600020E095FF06C090917A009F7D90937A00D8
:100A700021E090917C00907F90937C0090917C008D
:100A8000892B80937C0080917A00211521F080626F
:100A900080937A0008958F7DFBCF90916100EAE703
:100AA000F0E09081987F90839081892B80830895D6
:100AB00090917A0020E095FF06C090917A009F7D8A
:100AC00090937A0021E090917C009F7390937C003A
:100AD00090917C00892B80937C0080917A00211575
:100AE00021F0806280937A0008958F7DFBCFE4E649
:100AF000F0E080818E7F8083EAE780818068808358
:100B0000089580917A00806480937A0080917A00C1
:100B100086FDFCCF9FB7F8948091780020917900F2
:100B20009FBF922F0895E4E6F0E090819F7D90832F
:100B300014BC15BC16BC94B59C7F94BD94B5982B81
:100B400094BD95B5977F95BD95B5892B85BD85B528
:100B5000887F862B85BD609398010895E4E6F0E0D8
:100B60009081977F9083A0E8B0E01C92E1E810822A
:100B7000109282009FB7F894109285001092840022
:100B80009FBF9C919C7F9C939C91982B9C93908160
:100B9000977E90839081892B80838081887F80835A
:100BA0008081862B808360938E010895E6EBF0E0D0
:100BB00090819F7990839081892B80830895CF9332
:100BC000C62F909164009F7B909364001092B000B8
:100BD0001092B1001092B2009091B0009C7F90935F
:100BE000B0009091B000982B9093B0009091B1001C
:100BF000977F9093B1009091B100982B9093B100A2
:100C00009091B600907621F08091B60080FDFCCFE7
:100C1000842F0E94D6058091B100887F8093B10017
:100C20008091B1008C2B8093B1008091B6008076CA
:100C300021F08091B60080FDFCCFC0938701CF9159
:100C40000895CDB7DEB72A970FB6F894DEBF0FBE72
:100C5000CDBF8FB7F89490E8909361001092610037
:100C60008FBF8FE39CE90197F1F700C000008091EE
:100C700064008D7F809364008091C2008F738093A5
:100C8000C2008091C2008093C2008091C2008E7F1A
:100C90008093C200809164008D7F8093640060E83F
:100CA00075E280E090E00E9441048091C20086607D
:100CB0008093C2008091C1008B7F8093C10080919E
:100CC000C2008F7C8093C2008091C2008093C200DA
:100CD0008091C200877F8093C2008BEF93E0809366
:100CE000790290937A028091C10080688093C1005C
:100CF000789485ED93E080937502909376028091CD
:100D0000C10080628093C10078948091C1008061AD
:100D10008093C1008091C10088608093C1008EE102
:100D200091E080937B0290937C0210E21093060185
:100D300088E4809305018FB7F894A89508E10093A3
:100D4000600098E2909360008FBF88E40E943204B4
:100D500078949FB7F894A89584B7877F84BF009351
:100D60006000109260009FBF2998219A61E08BE09B
:100D70000E9493055D98559A5E98569A84B58F7334
:100D800084BD84B5806484BD84B58F7C84BD84B506
:100D9000806284BD88EC87BD18BC8091BC008068EF
:100DA0008093BC0065E083E00E9493058FE787BDD8
:100DB00084B58F7384BD84B5806884BD5E98569A6F
:100DC00083E790E080939B0190939C0182E0809365
:100DD000970190916E00926090936E0080939701BE
:100DE00090916E009D7F90936E008093970110927A
:100DF0009B0110929C0190916E009D7F90936E00DC
:100E00008093970180916E00876080936E0087E0E9
:100E10008093970161E08BE00E94AE058091800095
:100E20008F73809380008091800080688093800021
:100E30002998219A40E062E083E00E94DF05109348
:100E4000B3008091B600807621F08091B60083FDDA
:100E5000FCCF8091B0008F738093B0008091B00080
:100E600080688093B0002B98239A8091B0008F7C8B
:100E70008093B0008091B0008093B0002D98259AA7
:100E800010929D0110929E0110929B0110929C0164
:100E90001092990110929A0187E080939701109225
:100EA0009501109296011092930110929401109264
:100EB00091011092920180916F00887D80936F0064
:100EC00010928C0110928D0110928A0110928B0168
:100ED000109288011092890180917000887F809320
:100EE000700088E00E942E050E94770587E00E942E
:100EF0004D0580EC0E94580580917C008F7D809389
:100F00007C0003E710E00093A1011093A2018091FF
:100F10007A00886080937A0080917B00887F80933C
:100F20007B0080917B00826080937B0080917A00BF
:100F3000806280937A0088E00E942E050E947705E7
:100F400087E00E944D0580EC0E94580580917C004E
:100F50008F7D80937C000093A1011093A20180916A
:100F60007A00886080937A0080917B00887F8093EC
:100F70007B0080917B0080937B0080917A0080626F
:100F800080937A0080917B00887F80937B008091A2
:100F90007B0080937B0080917A00806280937A004E
:100FA00088E00E942E0580EC0E94580587E00E9490
:100FB0004D0580B78C7F80BF80B7836080BF8EE196
:100FC00091E0809385019093860180B7886080BF0F
:100FD00080B78C7F80BF80B7826080BF009385011F
:100FE0001093860180B7886080BF80917F00816008
:100FF00080937F0080917A008F7780937A00809130
:101000007B00806480937B0080917C00807F809354
:101010007C0080917C0080937C0080B78F7B80BFB8
:1010200090B780B7877F80BF80B78F7780BF93FFEF
:1010300003C080B7886080BF00002C9824982B984C
:10104000239A2D98259A2A98229A8DB58E7F8DBD48
:101050008CB58C7F8CBD8CB580618CBD8CB5837F4D
:101060008CBD8CB58CBD0E94250583E790E08093F4
:10107000EB019093EC018CB580688CBD0E94250536
:101080001EBC0DB407FEFDCF8EB583E790E08093C4
:101090009F019093A0018091BC0081608093BC006F
:1010A0008091BA0081608093BA008091BC008F7BF0
:1010B0008093BC008091BC0080628093BC008091D2
:1010C000BC008F7E8093BC0010929F011092A00103
:1010D0008091BC008E7F8093BC0000E010E00E94F5
:1010E00081054AE0BE016F5F7F4F0E94120ABE0178
:1010F0006F5F7F4F80E091E00E94DD0463E175E067
:101100000E9476009FEF23EC89E0915020408040C0
:10111000E1F700C0000082E0800F0F5F1F4F87BD26
:101120009FB7F89410938900009388009FBF88BDF3
:10113000D6CFCF93DF9300D000D00F92CDB7DEB7DC
:1011400080917D01898380917E018A8380917F01D6
:101150008B83809180018C83809181018D83B091FC
:101160008201F0918301E091840129813A814B81D0
:101170005C81682F7B2F8F2F9E2FA1E00E94E509B5
:1011800020937D0130937E0140937F015093800135
:101190006093810170938201809383019093840115
:1011A00029813A814B815C816D817B2F8F2F9E2F0E
:1011B000A0E00E94F10941F41092720210927102B3
:1011C000109274021092730280917501898380914C
:1011D00076018A83809177018B83809178018C835B
:1011E000809179018D83B0917A01F0917B01E0913A
:1011F0007C0129813A814B815C81682F7B2F8F2F65
:101200009E2FA1E00E94E50920937501309376019D
:1012100040937701509378016093790170937A013C
:1012200080937B0190937C0129813A814B815C8181
:101230006D817B2F8F2F9E2FA0E00E94F10941F43A
:1012400010922E0210922D021092300210922F0254
:1012500080916D01898380916E018A8380916F01F5
:101260008B83809170018C83809171018D83B0910B
:101270007201F0917301E091740129813A814B81EF
:101280005C81682F7B2F8F2F9E2FA1E00E94E509A4
:1012900020936D0130936E0140936F015093700164
:1012A0006093710170937201809373019093740144
:1012B00029813A814B815C816D817B2F8F2F9E2FFD
:1012C000A0E00E94F10941F41092E8011092E701B8
:1012D0001092EA011092E901809165018983809161
:1012E00066018A83809167018B83809168018C837A
:1012F000809169018D83B0916A01F0916B01E09159
:101300006C0129813A814B815C81682F7B2F8F2F63
:101310009E2FA1E00E94E5092093650130936601AC
:1013200040936701509368016093690170936A016B
:1013300080936B0190936C0129813A814B815C8190
:101340006D817B2F8F2F9E2FA0E00E94F10941F429
:101350001092C4011092C3011092C6011092C501EF
:101360000F900F900F900F900F90DF91CF910895F5
:10137000A1E21A2EAA1BBB1BFD010DC0AA1FBB1F99
:10138000EE1FFF1FA217B307E407F50720F0A21B0B
:10139000B30BE40BF50B661F771F881F991F1A9478
:1013A00069F760957095809590959B01AC01BD01A2
:1013B000CF0108950E94FD09A59F900DB49F900D47
:1013C000A49F800D911D112408950024A7FD009471
:1013D0002A0F301D401D501D601D701D801D901D69
:1013E00008950024A7FD00942A17300540055005F4
:1013F00060057005800590050895A29FB001B39F18
:10140000C001A39F700D811D1124911DB29F700D0D
:10141000811D1124911D0895EE0FFF1F0590F49179
:10142000E02D0994BB274A3031F4992322F4BDE220
:10143000909581959F4F0C941E0ABB27FB01552761
:10144000AA27880F991FAA1FA41710F0A41B839521
:101450005051B9F7A05DAA3308F0A95DA193009798
:1014600079F7B111B1931192CB010C94370ADC01D9
:10147000FC01672F71917723E1F7329704C07C91CB
:101480006D9370836291AE17BF07C8F30895F89407
:02149000FFCF8C
:10149200028025000008210D0A0057617463686408
:1014A2006F6754696D657220646964206E6F742081
:1014B20073746F7021200047656E65726174696E86
:1014C200672073797374656D2072657365742E2E4F
:1014D2002E0053797374656D207265736574206490
:0C14E200697361626C65642E2E2E0000A0
:00000001FF
