:100000000C9435000C945D000C945D000C945D0024
:100010000C945D000C945D000C94D5000C940603C8
:100020000C942F030C94DD020C94B4020C94620225
:100030000C948B020C9439020C94E7010C9410027E
:100040000C94BE010C945D000C9429010C940001E9
:100050000C9452010C945D000C945D000C945D00B6
:100060000C945D000C945D00C20511241FBECFEFFF
:10007000D8E0DEBFCDBF11E0A0E0B1E0E4EDFDE0EF
:1000800002C005900D92AC35B107D9F722E0ACE57E
:10009000B1E001C01D92A631B207E1F710E0C5E35F
:1000A000D0E004C02197FE010E94AD06C433D10701
:1000B000C9F70E94EE040C94E8060C9400008091AD
:1000C0005D0190915E01A0915F01B0916001019688
:1000D000A11DB11D80935D0190935E01A0935F010E
:1000E000B0936001089580E283B90895FC016083B4
:1000F000718342830895DC016130F9F0623009F4C4
:100100004EC0611571F1089594E0899F900111240A
:10011000ED91FD911297E20FF31F31819381292F09
:100120002095232321832081922B90838F5F129629
:100130009C911297891740F3089580E0F8CF24E04E
:10014000629FC0011124ED91FD911297E80FF91FF4
:1001500091818381809598239183908189238083E5
:100160006F5F12968C911297681748F3089594E088
:10017000899F90011124ED91FD911297E20FF31FD9
:10018000208193819095292320832181922391833B
:100190008F5F12969C911297891748F3089580E01B
:1001A000F8CF08950895089508951F920F920FB6FD
:1001B0000F9211242F933F934F935F936F937F93ED
:1001C0008F939F93AF93BF93EF93FF93E0911302AD
:1001D000F0911402309709F00995FF91EF91BF91CA
:1001E000AF919F918F917F916F915F914F913F91CF
:1001F0002F910F900FBE0F901F901895089508959E
:100200001F920F920FB60F9211242F933F934F938B
:100210005F936F937F938F939F93AF93BF93EF936E
:10022000FF93E0910F02F0911002309709F00995C9
:10023000FF91EF91BF91AF919F918F917F916F91BE
:100240005F914F913F912F910F900FBE0F901F9094
:1002500018951F920F920FB60F9211242F933F9370
:100260004F935F936F937F938F939F93AF93BF93BE
:10027000EF93FF93E0911102F0911202309709F091
:100280000995FF91EF91BF91AF919F918F917F91D0
:100290006F915F914F913F912F910F900FBE0F90F3
:1002A0001F9018951895CF93DF93CDB7DEB766975B
:1002B0000FB6F894DEBF0FBECDBF80E283B967E012
:1002C00071E080E091E00E94AF048D8B9E8B809165
:1002D0005C0191E0980F90935C014AE0BE016F5F72
:1002E0007F4F90E00E94B306BE016F5F7F4F8D8904
:1002F0009E890E94AF0464E271E00E94AF04809185
:100300005C018B3070F088E40E94040410925C0160
:1003100066960FB6F894DEBF0FBECDBFDF91CF91CA
:10032000089580911502803451F067E271E080E019
:1003300091E00E94AF0464E271E00E94AF042FEFED
:1003400089EF90E0215080409040E1F700C000002C
:1003500080E40E94040462E471E080E091E00E9485
:10036000AF0464E271E00E94AF0464E271E080E0F7
:1003700091E00E94AF0480E283B9CACF1F920F922E
:100380000FB60F9211242F933F934F935F936F9368
:100390007F938F939F93AF93BF93EF93FF93E091DE
:1003A0008501F0918601309709F00995FF91EF9151
:1003B000BF91AF919F918F917F916F915F914F917D
:1003C0003F912F910F900FBE0F901F9018951F9285
:1003D0000F920FB60F9211242F933F934F935F9379
:1003E0006F937F938F939F93AF93BF93EF93FF93FD
:1003F000E0918301F0918401309709F00995FF9114
:10040000EF91BF91AF919F918F917F916F915F918C
:100410004F913F912F910F900FBE0F901F90189505
:100420001F920F920FB60F9211242F933F934F9369
:100430005F936F937F938F939F93AF93BF93EF934C
:10044000FF93E0918101F0918201309709F00995C5
:10045000FF91EF91BF91AF919F918F917F916F919C
:100460005F914F913F912F910F900FBE0F901F9072
:1004700018951F920F920FB60F9211242F933F934E
:100480004F935F936F937F938F939F93AF93BF939C
:10049000EF93FF93E0917E01F0917F01309709F097
:1004A0000995FF91EF91BF91AF919F918F917F91AE
:1004B0006F915F914F913F912F910F900FBE0F90D1
:1004C0001F9018951F920F920FB60F9211242F9321
:1004D0003F934F935F936F937F938F939F93AF93CC
:1004E000BF93EF93FF93E0917C01F0917D013097F2
:1004F00009F00995FF91EF91BF91AF919F918F9175
:100500007F916F915F914F913F912F910F900FBE0F
:100510000F901F9018951F920F920FB60F921124F3
:100520002F933F934F935F936F937F938F939F93FB
:10053000AF93BF93EF93FF93E0917A01F0917B012A
:10054000309709F00995FF91EF91BF91AF919F917D
:100550008F917F916F915F914F913F912F910F906C
:100560000FBE0F901F9018951F920F920FB60F920B
:1005700011242F933F934F935F936F937F938F93A8
:100580009F93AF93BF93EF93FF93E0917801F09126
:100590007901309709F00995FF91EF91BF91AF91E3
:1005A0009F918F917F916F915F914F913F912F918B
:1005B0000F900FBE0F901F9018951F920F920FB6BD
:1005C0000F9211242F933F934F935F936F937F93D9
:1005D0008F939F93AF93BF93EF93FF93E091760137
:1005E000F0917701309709F00995FF91EF91BF9154
:1005F000AF919F918F917F916F915F914F913F91BB
:100600002F910F900FBE0F901F9018951F920F9271
:100610000FB60F9211242F933F934F935F936F93D5
:100620007F938F939F93AF93BF93EF93FF93E0914B
:100630007401F0917501309709F00995FF91EF91E0
:10064000BF91AF919F918F917F916F915F914F91EA
:100650003F912F910F900FBE0F901F9018951F92F2
:100660000F920FB60F9211242F933F934F935F93E6
:100670006F937F938F939F93AF93BF93EF93FF936A
:10068000E0917201F0917301309709F00995FF91A3
:10069000EF91BF91AF919F918F917F916F915F91FA
:1006A0004F913F912F910F900FBE0F901F90189573
:1006B000809164008F7B809364001092B000109250
:1006C000B1001092B2008091B0008C7F8093B00096
:1006D0008091B0008093B0008091B100877F8093BB
:1006E000B1008091B1008093B1008091B600807616
:1006F00021F08091B60080FDFCCF80E60E94E504E9
:100700008091B100887F8093B1008091B1008160B9
:100710008093B1008091B600807621F08091B60080
:1007200080FDFCCF81E0809371018FE590E08093A4
:1007300076019093770180917000816080937000C2
:1007400080E00E94E5042F98279A2F9A0895CF936E
:10075000DF930F92CDB7DEB78091C7019091C801AA
:100760002091C9013091CA0183958F7390E082175F
:100770009307F9F02091C6008091C7019091C801BC
:1007800083958F7390E04091C9015091CA018417FD
:10079000950759F0E091C701F091C801E957FE4F64
:1007A00020839093C8018093C7010F90DF91CF9170
:1007B00008958091C60089838981F7CF20910B022B
:1007C00030910C0280910D0290910E02281739078A
:1007D00031F48091C1008F7D8093C1000895E09134
:1007E0000D02F0910E02E553FE4F208180910D0223
:1007F00090910E0283958F7390E090930E028093F8
:100800000D022093C600089580931502E0E6F0E003
:1008100090812FB7F894A89538E130839772892B8F
:1008200080832FBF0895CF92DF92EF92FF920F93B4
:100830001F93CF93DF9300D000D0CDB7DEB76B010D
:100840007C011092C5001092C40060930101D09207
:10085000020180930301F0920401809161008F7086
:1008600040E054E264EF70E09B018A0104C03695D9
:100870002795179507958A95D2F709831A832B83B5
:100880003C838091C20086FD63C0807CD1F5B801B5
:10089000C9019601A701E4E0220F331F441F551F31
:1008A000EA95D1F70E94590622953295307F32277A
:1008B000207F322740E050E069817A818B819C81E2
:1008C0000E945906A4E6B0E00E947B069601A701AB
:1008D0000E945906245631091AF43195219531099F
:1008E0002430310574F18091C400811109C08091D8
:1008F000C500811105C08091C00082608093C00056
:10090000A8E0B0E09601A7010E947B069B01AC0124
:1009100069817A818B819C810E945906215031091D
:100920003093C5002093C4000F900F900F900F904C
:10093000DF91CF911F910F91FF90EF90DF90CF90BB
:1009400008958091C0008D7F8093C000A0E1D9CF31
:100950008091C0008D7F8093C000A2E0D2CFAC0117
:10096000FB018081811102C0CA0108953196209156
:100970000B0230910C0260910D0270910E022395D2
:100980002F7330E02617370791F320910B02309137
:100990000C0223952F7330E060910D0270910E02CE
:1009A0002617370759F0A0910B02B0910C02A553FE
:1009B000BE4F8C9330930C0220930B029091C10098
:1009C00090629093C1007894CCCFE6EBF0E09081F8
:1009D0009F7990839081892B808308958FB7F894B5
:1009E00090E890936100109261008FBF8FE39CE9C3
:1009F0000197F1F700C00000809164008D7F809323
:100A000064008091C2008F738093C2008091C20005
:100A10008093C2008091C2008E7F8093C20080913B
:100A200064008D7F8093640060E875E280E090E070
:100A30000E9413048091C20086608093C20080915E
:100A4000C1008B7F8093C1008091C2008F7C809316
:100A5000C2008091C2008093C2008091C200877F53
:100A60008093C20087EA93E0809311029093120270
:100A70008091C10080688093C10078948EED93E0EE
:100A800080930F02909310028091C1008062809346
:100A9000C10078948091C10080618093C1008091F1
:100AA000C10088608093C10083E591E080931302C8
:100AB0009093140280E28093060188E480930501FC
:100AC0008FB7F894A895C8E1C093600098E290931E
:100AD00060008FBF88E40E94040478949FB7F89464
:100AE000A89584B7877F84BFC09360001092600090
:100AF0009FBF2998219A809164008F7D8093640024
:100B000014BC15BC16BC84B58C7F84BD84B58360D1
:100B100084BD85B5877F85BD85B5836085BD85B579
:100B2000887F856085BD85E0809380018FE787BDE4
:100B300084B58F7384BD84B5806C84BD5E98569AED
:100B400083E790E0809383019093840180916E000D
:100B5000826080936E002D98259A259906C02D9B62
:100B600004C085B78F7E85BF2D9A80E09FEF21EE70
:100B700034E0915020403040E1F700C000008F5F2A
:100B800087BDF4CFCF93DF9300D000D00F92CDB7C5
:100B9000DEB780916901898380916A018A8380919F
:100BA0006B018B8380916C018C8380916D018D83AF
:100BB000B0916E01F0916F01E091700129813A814D
:100BC0004B815C81682F7B2F8F2F9E2FA1E00E948D
:100BD00086062093690130936A0140936B0150931C
:100BE0006C0160936D0170936E0180936F0190931F
:100BF000700129813A814B815C816D817B2F8F2F20
:100C00009E2FA0E00E94920641F410920C021092D6
:100C10000B0210920E0210920D02809161018983E5
:100C2000809162018A83809163018B83809164014A
:100C30008C83809165018D83B0916601F09167018D
:100C4000E091680129813A814B815C81682F7B2F7B
:100C50008F2F9E2FA1E00E94860620936101309382
:100C60006201409363015093640160936501709346
:100C70006601809367019093680129813A814B81D5
:100C80005C816D817B2F8F2F9E2FA0E00E949206AA
:100C900041F41092C8011092C7011092CA0110923B
:100CA000C9010F900F900F900F900F90DF91CF918F
:100CB0000895A1E21A2EAA1BBB1BFD010DC0AA1F9D
:100CC000BB1FEE1FFF1FA217B307E407F50720F0B5
:100CD000A21BB30BE40BF50B661F771F881F991F30
:100CE0001A9469F760957095809590959B01AC0179
:100CF000BD01CF0108950E949E06A59F900DB49F4F
:100D0000900DA49F800D911D112408950024A7FD2E
:100D100000942A0F301D401D501D601D701D801D48
:100D2000901D08950024A7FD00942A173005400562
:100D3000500560057005800590050895A29FB001DB
:100D4000B39FC001A39F700D811D1124911DB29FFF
:100D5000700D811D1124911D0895EE0FFF1F059048
:100D6000F491E02D0994BB274A3031F4992322F401
:100D7000BDE2909581959F4F0C94BF06BB27FB0168
:100D80005527AA27880F991FAA1FA41710F0A41B84
:100D900083955051B9F7A05DAA3308F0A95DA193DE
:100DA000009779F7B111B1931192CB010C94D80649
:100DB000DC01FC01672F71917723E1F7329704C0C2
:100DC0007C916D9370836291AE17BF07C8F308954D
:040DD000F894FFCFC5
:100DD400028025000008215761746368646F6754BA
:100DE400696D657220646964206E6F742073746F1A
:100DF400702120000D0A0047656E65726174696E8A
:100E0400672073797374656D2072657365742E2E13
:100E14002E0053797374656D207265736574206454
:0C0E2400697361626C65642E2E2E000064
:00000001FF
