:100000000C9435000C945D000C945D000C945D0024
:100010000C945D000C945D000C947A000C946C03BD
:100020000C9495030C9443030C941A030C94C8028B
:100030000C94F1020C949F020C944D020C947602E5
:100040000C9424020C948B010C94CE000C94A5000B
:100050000C94F7000C94D2010C94FB010C94D50382
:100060000C945D000C945D00530911241FBECFEF6A
:10007000D8E0DEBFCDBF11E0A0E0B1E0E6E0F6E100
:1000800002C005900D92AC35B107D9F722E0ACE57E
:10009000B1E001C01D92AC37B207E1F710E0C5E353
:1000A000D0E004C02197FE010E94C60AC433D107E4
:1000B000C9F70E94BC060C94010B0C9400008091BF
:1000C0005D0190915E01A0915F01B0916001019688
:1000D000A11DB11D80935D0190935E01A0935F010E
:1000E000B0936001089580E283B9089500002C98D0
:1000F000249808951F920F920FB60F9211242F93F8
:100100003F934F935F936F937F938F939F93AF939F
:10011000BF93EF93FF93E0917902F0917A023097C9
:1001200009F00995FF91EF91BF91AF919F918F9148
:100130007F916F915F914F913F912F910F900FBEE3
:100140000F901F901895089508951F920F920FB663
:100150000F9211242F933F934F935F936F937F934D
:100160008F939F93AF93BF93EF93FF93E0917302AD
:10017000F0917402309709F00995FF91EF91BF91CA
:10018000AF919F918F917F916F915F914F913F912F
:100190002F910F900FBE0F901F9018951F920F92E6
:1001A0000FB60F9211242F933F934F935F936F934A
:1001B0007F938F939F93AF93BF93EF93FF93E091C0
:1001C0007702F0917802309709F00995FF91EF914D
:1001D000BF91AF919F918F917F916F915F914F915F
:1001E0003F912F910F900FBE0F901F9018951F9267
:1001F0000F920FB60F9211242F933F934F935F935B
:100200006F937F938F939F93AF93BF93EF93FF93DE
:10021000E0917502F0917602309709F00995FF910F
:10022000EF91BF91AF919F918F917F916F915F916E
:100230004F913F912F910F900FBE0F901F901895E7
:10024000CF93DF93CDB7DEB766970FB6F894DEBFD6
:100250000FBECDBF80E283B967E071E080E091E03E
:100260000E9460058D8B9E8B80915C0191E0980FC0
:1002700090935C014AE0BE016F5F7F4F90E00E9467
:10028000CC0ABE016F5F7F4F8D899E890E946005F9
:1002900064E271E00E94600580915C018B3070F037
:1002A00088E40E945B0410925C0166960FB6F89495
:1002B000DEBF0FBECDBFDF91CF91089580917B024D
:1002C000803451F067E271E080E091E00E946005C7
:1002D00064E271E00E9460052FEF89EF90E0215009
:1002E00080409040E1F700C0000080E40E945B0481
:1002F00062E471E080E091E00E94600564E271E0F8
:100300000E94600564E271E080E091E00E94600577
:1003100080E283B9CACF1F920F920FB60F921124B9
:100320002F933F934F935F936F937F938F939F93FD
:10033000AF93BF93EF93FF93E091E901F091EA014E
:10034000309709F00995FF91EF91BF91AF919F917F
:100350008F917F916F915F914F913F912F910F906E
:100360000FBE0F901F90189585E00E94C50588E08C
:100370000E94A60580917C0087E00E94A6050E944D
:10038000ED0580917A00806480937A0080917A00F4
:1003900086FDFCCF8FB7F89490917800909179000A
:1003A0008FBF08951F920F920FB60F9211242F93B3
:1003B0003F934F935F936F937F938F939F93AF93ED
:1003C000BF93EF93FF93E0919F01F091A0013097CD
:1003D00009F00995FF91EF91BF91AF919F918F9196
:1003E0007F916F915F914F913F912F910F900FBE31
:1003F0000F901F9018951F920F920FB60F92112415
:100400002F933F934F935F936F937F938F939F931C
:10041000AF93BF93EF93FF93E0919B01F0919C0109
:10042000309709F00995FF91EF91BF91AF919F919E
:100430008F917F916F915F914F913F912F910F908D
:100440000FBE0F901F9018951F920F920FB60F922C
:1004500011242F933F934F935F936F937F938F93C9
:100460009F93AF93BF93EF93FF93E0919901F09126
:100470009A01309709F00995FF91EF91BF91AF91E3
:100480009F918F917F916F915F914F913F912F91AC
:100490000F900FBE0F901F9018951F920F920FB6DE
:1004A0000F9211242F933F934F935F936F937F93FA
:1004B0008F939F93AF93BF93EF93FF93E091970137
:1004C000F0919801309709F00995FF91EF91BF9154
:1004D000AF919F918F917F916F915F914F913F91DC
:1004E0002F910F900FBE0F901F9018951F920F9293
:1004F0000FB60F9211242F933F934F935F936F93F7
:100500007F938F939F93AF93BF93EF93FF93E0916C
:100510009501F0919601309709F00995FF91EF91BF
:10052000BF91AF919F918F917F916F915F914F910B
:100530003F912F910F900FBE0F901F9018951F9213
:100540000F920FB60F9211242F933F934F935F9307
:100550006F937F938F939F93AF93BF93EF93FF938B
:10056000E0919101F0919201309709F00995FF9186
:10057000EF91BF91AF919F918F917F916F915F911B
:100580004F913F912F910F900FBE0F901F90189594
:100590001F920F920FB60F9211242F933F934F93F8
:1005A0005F936F937F938F939F93AF93BF93EF93DB
:1005B000FF93E0918F01F0919001309709F0099538
:1005C000FF91EF91BF91AF919F918F917F916F912B
:1005D0005F914F913F912F910F900FBE0F901F9001
:1005E00018951F920F920FB60F9211242F933F93DD
:1005F0004F935F936F937F938F939F93AF93BF932B
:10060000EF93FF93E0918D01F0918E01309709F007
:100610000995FF91EF91BF91AF919F918F917F913C
:100620006F915F914F913F912F910F900FBE0F905F
:100630001F9018951F920F920FB60F9211242F93AF
:100640003F934F935F936F937F938F939F93AF935A
:10065000BF93EF93FF93E0918B01F0918C01309762
:1006600009F00995FF91EF91BF91AF919F918F9103
:100670007F916F915F914F913F912F910F900FBE9E
:100680000F901F9018951F920F920FB60F92112482
:100690002F933F934F935F936F937F938F939F938A
:1006A000AF93BF93EF93FF93E0918801F09189019D
:1006B000309709F00995FF91EF91BF91AF919F910C
:1006C0008F917F916F915F914F913F912F910F90FB
:1006D0000FBE0F901F9018951F920F920FB60F929A
:1006E00011242F933F934F935F936F937F938F9337
:1006F0009F93AF93BF93EF93FF93E0918601F091A7
:100700008701309709F00995FF91EF91BF91AF9163
:100710009F918F917F916F915F914F913F912F9119
:100720000F900FBE0F901F9018951F920F920FB64B
:100730000F9211242F933F934F935F936F937F9367
:100740008F939F93AF93BF93EF93FF93E0918401B7
:10075000F0918501309709F00995FF91EF91BF91D4
:10076000AF919F918F917F916F915F914F913F9149
:100770002F910F900FBE0F901F90189540E661E0EB
:1007800080E00E944F068FE590E08093880190936F
:100790008901E0E7F0E080818160808380E00E9451
:1007A00046062F98279A2F9A08951F920F920FB6F8
:1007B0000F9211242F933F934F935F936F937F93E7
:1007C0008F939F93AF93BF93EF93FF93E09181013A
:1007D000F0918201309709F00995FF91EF91BF9157
:1007E000AF919F918F917F916F915F914F913F91C9
:1007F0002F910F900FBE0F901F90189520916F02B0
:10080000309170028091710290917202281739071D
:1008100031F48091C1008F7D8093C1000895E091F3
:100820007102F0917202E15DFD4F208180917102B1
:100830009091720283958F7390E0909372028093EF
:1008400071022093C6000895CF93DF930F92CDB726
:10085000DEB780912B0290912C0220912D023091D5
:100860002E0283958F7390E082179307F9F0209101
:10087000C60080912B0290912C0283958F7390E09B
:1008800040912D0250912E028417950759F0E09166
:100890002B02F0912C02E551FE4F208390932C0205
:1008A00080932B020F90DF91CF9108958091C60025
:1008B00089838981F7CF80937B02E0E6F0E0908125
:1008C0002FB7F894A89538E130839772892B8083ED
:1008D0002FBF08959091C2009F739093C200909192
:1008E000C200982B9093C20081110BC08091C2006E
:1008F0008E7F8093C200809164008D7F809364001E
:1009000008958091C0008D7F8093C000F4CFE2EC09
:10091000F0E090819F7C90839081892B8083089563
:100920008230E1F068F4811110C08091C200897FAB
:100930008093C2008091C1008B7F8093C100089595
:100940008330A9F08430B9F008958091C2008B7F84
:100950008093C2008091C2008260EACF8091C20081
:1009600084608093C2008091C2008D7FE1CF80912E
:10097000C2008660DDCF8091C20086608093C20095
:100980008091C1008460D9CFCF92DF92EF92FF9225
:100990000F931F93CF93DF9300D000D0CDB7DEB776
:1009A0006B017C011092C5001092C400609301019C
:1009B000D092020180930301F092040180916100C2
:1009C0008F7040E054E264EF70E09B018A0104C044
:1009D00036952795179507958A95D2F709831A8337
:1009E0002B833C838091C20086FD63C0807CD1F55F
:1009F000B801C9019601A701E4E0220F331F441F8B
:100A0000551FEA95D1F70E94720A22953295307FE0
:100A10003227207F322740E050E069817A818B8144
:100A20009C810E94720AA4E6B0E00E94940A96019A
:100A3000A7010E94720A245631091AF431952195B2
:100A400031092430310574F18091C400811109C04D
:100A50008091C500811105C08091C00082608093A3
:100A6000C000A8E0B0E09601A7010E94940A9B0193
:100A7000AC0169817A818B819C810E94720A21502C
:100A800031093093C5002093C4000F900F900F9050
:100A90000F90DF91CF911F910F91FF90EF90DF901A
:100AA000CF9008958091C0008D7F8093C000A0E119
:100AB000D9CF8091C0008D7F8093C000A2E0D2CFBB
:100AC000AC01FB018081811102C0CA0108953196F9
:100AD00020916F02309170026091710270917202E8
:100AE00023952F7330E02617370791F320916F027B
:100AF0003091700223952F7330E0609171027091F4
:100B000072022617370759F0A0916F02B091700258
:100B1000A15DBD4F8C933093700220936F02909132
:100B2000C10090629093C1007894CCCFE4E6F0E0ED
:100B300080818B7F80838CB580648CBD08959CB54B
:100B4000937F9CBD9CB5892B8CBD089590917A00B4
:100B500020E095FF06C090917A009F7D90937A00E7
:100B600021E090917C00907F90937C0090917C009C
:100B7000892B80937C0080917A00211521F080627E
:100B800080937A0008958F7DFBCFEAE7F0E09081B3
:100B9000987F90839081892B8083089590917A002B
:100BA00020E095FF06C090917A009F7D90937A0097
:100BB00021E090917C009F7390937C0090917C0049
:100BC000892B80937C0080917A00211521F080622E
:100BD00080937A0008958F7DFBCFE4E6F0E080817A
:100BE0008E7F8083EAE78081806880830895811109
:100BF00006C080917C008F7D80937C000895809159
:100C00007C008062F9CFE4E6F0E090819F7D9083E4
:100C100014BC15BC16BC94B59C7F94BD94B5982BA0
:100C200094BD95B5977F95BD95B5892B85BD85B547
:100C3000887F862B85BD609394010895E4E6F0E0FB
:100C40009081977F9083A0E8B0E01C92E1E8108249
:100C5000109282009FB7F894109285001092840041
:100C60009FBF9C919C7F9C939C91982B9C9390817F
:100C7000977E90839081892B80838081887F808379
:100C80008081862B808360938A010895E6EBF0E0F3
:100C900090819F7990839081892B80830895CF9351
:100CA000C62F909164009F7B909364001092B000D7
:100CB0001092B1001092B2009091B0009C7F90937E
:100CC000B0009091B000982B9093B0009091B1003B
:100CD000977F9093B1009091B100982B9093B100C1
:100CE0009091B600907621F08091B60080FDFCCF07
:100CF000842F0E9446068091B100887F8093B100C6
:100D00008091B1008C2B8093B1008091B6008076E9
:100D100021F08091B60080FDFCCFC111C09383010A
:100D2000CF9108958F3F31F480917B008F7B80932A
:100D30007B00089590917A009F7790937A0090912C
:100D40007B00906490937B0090917C00907F9093C7
:100D50007C0090917C00982B90937C00089590B734
:100D600080B7877F80BF80B78F7780BF93FF03C036
:100D700080B7886080BF08958FB7F89490E890930B
:100D80006100109261008FBF8FE39CE90197F1F73A
:100D900000C00000809164008D7F8093640080E03B
:100DA0000E946A0460E875E280E090E00E94C4045A
:100DB00083E00E94900480E00E9487048091C2003A
:100DC000877F8093C20004E214E0009377021093BF
:100DD00078028091C10080688093C1007894CEEF42
:100DE000D3E0C0937302D09374028091C1008062FB
:100DF0008093C10078948091C10080618093C1008C
:100E00008091C100877F8093C100809164008D7FB5
:100E10008093640080E00E946A0460E875E280E0EC
:100E200090E00E94C40483E00E94900480E00E944D
:100E300087048091C200877F8093C200009377026D
:100E4000109378028091C10080688093C1007894EB
:100E5000C0937302D09374028091C100806280932A
:100E6000C10078948091C10080618093C10080911D
:100E7000C10088608093C10080E291E08093790294
:100E800090937A0210E21093060188E480930501A2
:100E90008FB7F894A895C8E1C093600098E290934A
:100EA00060008FBF88E40E945B0478949FB7F89439
:100EB000A89584B7877F84BFC093600010926000BC
:100EC0009FBF2998219A61E08BE00E9403065D98FC
:100ED000559A5E98569A84B58F7384BD84B58064A4
:100EE00084BD84B58F7C84BD84B5806284BD88EC6C
:100EF00087BD18BC8091BC0080688093BC0065E011
:100F000083E00E9403068FE787BD84B58F7384BD9D
:100F100084B5806884BD5E98569AC3E7D0E0C093DC
:100F20009701D093980182E08093930190916E0095
:100F3000926090936E008093930190916E009D7FDC
:100F400090936E00809393011092970110929801F4
:100F500090916E009D7F90936E008093930180919D
:100F60006E00876080936E0087E08093930161E05C
:100F70008BE00E941E06809180008F73809380001A
:100F8000809180008068809380002998219AC09386
:100F90009101D093920180916F00816080936F00E6
:100FA00080918100806480938100809181008068BD
:100FB0008093810040E062E083E00E944F0610933E
:100FC000B3008091B600807621F08091B60083FD59
:100FD000FCCF8091B0008F738093B0008091B000FF
:100FE00080688093B0002B98239A8091B0008F7C0A
:100FF0008093B0008091B0008093B0002D98259A26
:101000001092990110929A011092970110929801F2
:10101000109295011092960187E0809393011092AF
:1010200091011092920110928F01109290011092F2
:101030008D0110928E0180916F00887D80936F00EA
:1010400010928801109289011092860110928701F6
:10105000109284011092850180917000887F8093A6
:10106000700088E00E94A6050E94ED0587E00E94BE
:10107000C50580EC0E94CE0580E00E94F705C3E71D
:10108000D0E0C0939F01D093A00180917A00886046
:1010900080937A0080917B00887F80937B00809191
:1010A0007B00826080937B0080917A0080628093D5
:1010B0007A0088E00E94A6050E94ED0587E00E9464
:1010C000C50580EC0E94CE0580E00E94F705C09324
:1010D0009F01D093A00180917A00886080937A006C
:1010E00080917B00887F80937B0080917B00809340
:1010F0007B0080917A00806280937A0080917B00EF
:10110000887F80937B0080917B0080937B0080911F
:101110007A00806280937A0088E00E94A60580ECC5
:101120000E94CE0587E00E94C50580E00E94F70579
:101130000E94ED0588E00E94A60580EC0E94CE0585
:1011400087E00E94C50580E00E94F7050E94ED053A
:1011500080B78C7F80BF80B7836080BF80E291E0E2
:10116000809381019093820180B7886080BF80B7AF
:101170008F7B80BF8FEF0E9492060E94AF0680B7E0
:101180008C7F80BF80B7826080BFC0938101D09385
:10119000820180B7886080BF80917F0081608093EA
:1011A0007F0080E00E94920680B78F7B80BF0E9404
:1011B000AF060E9476002B98239A2D98259A2A989C
:1011C000229A8DB58E7F8DBD8CB58C7F8CBD8CB5F4
:1011D00080618CBD80E00E949F050E949605C093AF
:1011E000E901D093EA018CB580688CBD0E94960518
:1011F0001EBC0DB407FEFDCF8EB50E9476002B9865
:10120000239A2D98259A2A98229A8DB58E7F8DBD86
:101210008CB58C7F8CBD8CB580618CBD80E00E94CC
:101220009F050E94960583E790E080939D0190932F
:101230009E018091BC0081608093BC008091BA00C7
:1012400081608093BA008091BC008F7B8093BC004A
:101250008091BC0080628093BC008091BC008F7E36
:101260008093BC0010929D0110929E018091BC0061
:101270008E7F8093BC00000043983B983B9906C04A
:10128000439B04C085B78F7E85BF439A86B1E09AA1
:10129000E89A809169008C7F809369008091690051
:1012A000816080936900CF93DF9300D000D00F92CC
:1012B000CDB7DEB780917901898380917A018A83E5
:1012C00080917B018B8380917C018C8380917D0157
:1012D0008D83B0917E01F0917F01E09180012981A1
:1012E0003A814B815C81682F7B2F8F2F9E2FA1E04D
:1012F0000E949F0A2093790130937A0140937B01E9
:1013000050937C0160937D0170937E0180937F01F7
:101310009093800129813A814B815C816D817B2F83
:101320008F2F9E2FA0E00E94AB0A41F41092700212
:1013300010926F02109272021092710280917101EC
:101340008983809172018A83809173018B8380915C
:1013500074018C83809175018D83B0917601F09139
:101360007701E091780129813A814B815C81682F76
:101370007B2F8F2F9E2FA1E00E949F0A2093710147
:10138000309372014093730150937401609375011F
:1013900070937601809377019093780129813A8147
:1013A0004B815C816D817B2F8F2F9E2FA0E00E944F
:1013B000AB0A41F410922C0210922B0210922E02D2
:1013C00010922D0280916901898380916A018A833C
:1013D00080916B018B8380916C018C8380916D0176
:1013E0008D83B0916E01F0916F01E09170012981C0
:1013F0003A814B815C81682F7B2F8F2F9E2FA1E03C
:101400000E949F0A2093690130936A0140936B0107
:1014100050936C0160936D0170936E0180936F0126
:101420009093700129813A814B815C816D817B2F82
:101430008F2F9E2FA0E00E94AB0A41F41092E6018C
:101440001092E5011092E8011092E701809161018C
:101450008983809162018A83809163018B8380916B
:1014600064018C83809165018D83B0916601F09158
:101470006701E091680129813A814B815C81682F85
:101480007B2F8F2F9E2FA1E00E949F0A2093610146
:10149000309362014093630150936401609365014E
:1014A00070936601809367019093680129813A8166
:1014B0004B815C816D817B2F8F2F9E2FA0E00E943E
:1014C000AB0A41F41092C2011092C1011092C40102
:1014D0001092C3010F900F900F900F900F90DF911B
:1014E000CF910895A1E21A2EAA1BBB1BFD010DC0CE
:1014F000AA1FBB1FEE1FFF1FA217B307E407F507C4
:1015000020F0A21BB30BE40BF50B661F771F881F9F
:10151000991F1A9469F760957095809590959B0135
:10152000AC01BD01CF0108950E94B70AA59F900D9F
:10153000B49F900DA49F800D911D11240895002447
:10154000A7FD00942A0F301D401D501D601D701D09
:10155000801D901D08950024A7FD00942A173005D2
:101560004005500560057005800590050895A29F0F
:10157000B001B39FC001A39F700D811D1124911D67
:10158000B29F700D811D1124911D0895EE0FFF1F54
:101590000590F491E02D0994BB274A3031F499234A
:1015A00022F4BDE2909581959F4F0C94D80ABB27F9
:1015B000FB015527AA27880F991FAA1FA41710F00F
:1015C000A41B83955051B9F7A05DAA3308F0A95D1B
:1015D000A193009779F7B111B1931192CB010C94BB
:1015E000F10ADC01FC01672F71917723E1F7329753
:1015F00004C07C916D9370836291AE17BF07C8F3EE
:061600000895F894FFCFED
:10160600028025000008215761746368646F67547F
:10161600696D657220646964206E6F742073746FDF
:10162600702120000D0A0047656E65726174696E4F
:10163600672073797374656D2072657365742E2ED9
:101646002E0053797374656D20726573657420641A
:0C165600697361626C65642E2E2E00002A
:00000001FF
