:100000000C9435000C945D000C945D000C945D0024
:100010000C945D000C945D000C9478000C943203F9
:100020000C945B030C9409030C94E0020C948E0274
:100030000C94B7020C9465020C9413020C943C02CD
:100040000C94EA010C9489010C94CC000C94A3004C
:100050000C94F5000C94C1010C945D000C949B036E
:100060000C945D000C945D009C0811241FBECFEF22
:10007000D8E0DEBFCDBF11E0A0E0B1E0E8E9F4E1F7
:1000800002C005900D92AC35B107D9F722E0ACE57E
:10009000B1E001C01D92AA37B207E1F710E0C5E355
:1000A000D0E004C02197FE010E940F0AC433D1079B
:1000B000C9F70E9410060C944A0A0C940000809123
:1000C0005D0190915E01A0915F01B0916001019688
:1000D000A11DB11D80935D0190935E01A0935F010E
:1000E000B0936001089580E283B90895FB010994FB
:1000F0001F920F920FB60F9211242F933F934F939D
:100100005F936F937F938F939F93AF93BF93EF937F
:10011000FF93E0917702F0917802309709F009950A
:10012000FF91EF91BF91AF919F918F917F916F91CF
:100130005F914F913F912F910F900FBE0F901F90A5
:100140001895089508951F920F920FB60F921124DB
:100150002F933F934F935F936F937F938F939F93CF
:10016000AF93BF93EF93FF93E0917102F09172020E
:10017000309709F00995FF91EF91BF91AF919F9151
:100180008F917F916F915F914F913F912F910F9040
:100190000FBE0F901F9018951F920F920FB60F92DF
:1001A00011242F933F934F935F936F937F938F937C
:1001B0009F93AF93BF93EF93FF93E0917502F091FC
:1001C0007602309709F00995FF91EF91BF91AF91B9
:1001D0009F918F917F916F915F914F913F912F915F
:1001E0000F900FBE0F901F9018951F920F920FB691
:1001F0000F9211242F933F934F935F936F937F93AD
:100200008F939F93AF93BF93EF93FF93E09173020C
:10021000F0917402309709F00995FF91EF91BF9129
:10022000AF919F918F917F916F915F914F913F918E
:100230002F910F900FBE0F901F901895CF93DF93C3
:10024000CDB7DEB766970FB6F894DEBF0FBECDBF51
:1002500080E283B96AE071E080E091E00E94CC0422
:100260008D8B9E8B80915C0191E0980F90935C0147
:100270004AE0BE016F5F7F4F90E00E94150ABE0109
:100280006F5F7F4F8D899E890E94CC0462E075E08C
:100290000E94760080915C018B3070F088E40E94AF
:1002A000210410925C0166960FB6F894DEBF0FBE73
:1002B000CDBFDF91CF91089580917902803451F0C4
:1002C00067E271E080E091E00E94CC0462E075E0BA
:1002D0000E9476002FEF89EF90E0215080409040FF
:1002E000E1F700C0000080E40E94210462E471E0B4
:1002F00080E091E00E94CC0462E075E00E9476000C
:1003000062E075E080E091E00E94760080E283B9CF
:10031000CACF1F920F920FB60F9211242F933F93C3
:100320004F935F936F937F938F939F93AF93BF93FD
:10033000EF93FF93E091E701F091E801309709F026
:100340000995FF91EF91BF91AF919F918F917F910F
:100350006F915F914F913F912F910F900FBE0F9032
:100360001F90189585E00E943C0588E00E941D05BD
:1003700080917C0087E00E941D050E9466050C9418
:1003800070051F920F920FB60F9211242F933F9377
:100390004F935F936F937F938F939F93AF93BF938D
:1003A000EF93FF93E0919D01F0919E01309709F04A
:1003B0000995FF91EF91BF91AF919F918F917F919F
:1003C0006F915F914F913F912F910F900FBE0F90C2
:1003D0001F9018951F920F920FB60F9211242F9312
:1003E0003F934F935F936F937F938F939F93AF93BD
:1003F000BF93EF93FF93E0919901F0919A013097A9
:1004000009F00995FF91EF91BF91AF919F918F9165
:100410007F916F915F914F913F912F910F900FBE00
:100420000F901F9018951F920F920FB60F921124E4
:100430002F933F934F935F936F937F938F939F93EC
:10044000AF93BF93EF93FF93E0919701F0919801E1
:10045000309709F00995FF91EF91BF91AF919F916E
:100460008F917F916F915F914F913F912F910F905D
:100470000FBE0F901F9018951F920F920FB60F92FC
:1004800011242F933F934F935F936F937F938F9399
:100490009F93AF93BF93EF93FF93E0919501F091FA
:1004A0009601309709F00995FF91EF91BF91AF91B7
:1004B0009F918F917F916F915F914F913F912F917C
:1004C0000F900FBE0F901F9018951F920F920FB6AE
:1004D0000F9211242F933F934F935F936F937F93CA
:1004E0008F939F93AF93BF93EF93FF93E09191010D
:1004F000F0919201309709F00995FF91EF91BF912A
:10050000AF919F918F917F916F915F914F913F91AB
:100510002F910F900FBE0F901F9018951F920F9262
:100520000FB60F9211242F933F934F935F936F93C6
:100530007F938F939F93AF93BF93EF93FF93E0913C
:100540008F01F0919001309709F00995FF91EF919B
:10055000BF91AF919F918F917F916F915F914F91DB
:100560003F912F910F900FBE0F901F9018951F92E3
:100570000F920FB60F9211242F933F934F935F93D7
:100580006F937F938F939F93AF93BF93EF93FF935B
:10059000E0918D01F0918E01309709F00995FF915E
:1005A000EF91BF91AF919F918F917F916F915F91EB
:1005B0004F913F912F910F900FBE0F901F90189564
:1005C0001F920F920FB60F9211242F933F934F93C8
:1005D0005F936F937F938F939F93AF93BF93EF93AB
:1005E000FF93E0918B01F0918C01309709F0099510
:1005F000FF91EF91BF91AF919F918F917F916F91FB
:100600005F914F913F912F910F900FBE0F901F90D0
:1006100018951F920F920FB60F9211242F933F93AC
:100620004F935F936F937F938F939F93AF93BF93FA
:10063000EF93FF93E0918801F0918901309709F0E1
:100640000995FF91EF91BF91AF919F918F917F910C
:100650006F915F914F913F912F910F900FBE0F902F
:100660001F9018951F920F920FB60F9211242F937F
:100670003F934F935F936F937F938F939F93AF932A
:10068000BF93EF93FF93E0918601F091870130973C
:1006900009F00995FF91EF91BF91AF919F918F91D3
:1006A0007F916F915F914F913F912F910F900FBE6E
:1006B0000F901F9018951F920F920FB60F92112452
:1006C0002F933F934F935F936F937F938F939F935A
:1006D000AF93BF93EF93FF93E0918401F091850175
:1006E000309709F00995FF91EF91BF91AF919F91DC
:1006F0008F917F916F915F914F913F912F910F90CB
:100700000FBE0F901F90189540E661E080E00E94B8
:10071000CE058FE590E08093880190938901E0E712
:10072000F0E080818160808380E00E94C5052F9881
:10073000279A2F9A08951F920F920FB60F921124A5
:100740002F933F934F935F936F937F938F939F93D9
:10075000AF93BF93EF93FF93E0918101F0918201FA
:10076000309709F00995FF91EF91BF91AF919F915B
:100770008F917F916F915F914F913F912F910F904A
:100780000FBE0F901F90189520916D0230916E0250
:1007900080916F02909170022817390731F480918F
:1007A000C1008F7D8093C1000895E0916F02F091A8
:1007B0007002E35DFD4F208180916F029091700285
:1007C00083958F7390E09093700280936F022093D3
:1007D000C6000895CF93DF930F92CDB7DEB7809117
:1007E000290290912A0220912B0230912C028395AC
:1007F0008F7390E082179307F9F02091C6008091E3
:10080000290290912A0283958F7390E040912B02E8
:1008100050912C028417950759F0E0912902F0912C
:100820002A02E751FE4F208390932A0280932902E7
:100830000F90DF91CF9108958091C60089838981BF
:10084000F7CF80937902E0E6F0E090812FB7F8943B
:10085000A89538E130839772892B80832FBF089544
:10086000CF92DF92EF92FF920F931F93CF93DF937C
:1008700000D000D0CDB7DEB76B017C011092C5006F
:100880001092C40060930101D09202018093030191
:10089000F0920401809161008F7040E054E264EFB7
:1008A00070E09B018A0104C036952795179507953E
:1008B0008A95D2F709831A832B833C838091C200E7
:1008C00086FD63C0807CD1F5B801C9019601A701FE
:1008D000E4E0220F331F441F551FEA95D1F70E9411
:1008E000BB0922953295307F3227207F322740E0A6
:1008F00050E069817A818B819C810E94BB09A4E6CA
:10090000B0E00E94DD099601A7010E94BB092456B0
:1009100031091AF43195219531092430310574F1EA
:100920008091C400811109C08091C500811105C06A
:100930008091C00082608093C000A8E0B0E0960182
:10094000A7010E94DD099B01AC0169817A818B813D
:100950009C810E94BB09215031093093C50020932E
:10096000C4000F900F900F900F90DF91CF911F91C7
:100970000F91FF90EF90DF90CF9008958091C0008D
:100980008D7F8093C000A0E1D9CF8091C0008D7F82
:100990008093C000A2E0D2CFAC01FB018081811125
:1009A00002C0CA010895319620916D0230916E0205
:1009B00060916F027091700223952F7330E02617BB
:1009C000370791F320916D0230916E0223952F73BA
:1009D00030E060916F02709170022617370759F06E
:1009E000A0916D02B0916E02A35DBD4F8C933093C8
:1009F0006E0220936D029091C10090629093C100AD
:100A00007894CCCFCF93DF9300D0CDB7DEB7898376
:100A10009A8367E071E00E94CC0489819A810F90EB
:100A20000F90DF91CF910895E4E6F0E080818B7F15
:100A300080838CB580648CBD089590917A0020E00D
:100A400095FF06C090917A009F7D90937A0021E0F7
:100A500090917C00907F90937C0090917C00892BFA
:100A600080937C0080917A00211521F08062809330
:100A70007A0008958F7DFBCF90916100EAE7F0E066
:100A80009081987F90839081892B808308959091A5
:100A90007A0020E095FF06C090917A009F7D9093A8
:100AA0007A0021E090917C009F7390937C0090915C
:100AB0007C00892B80937C0080917A00211521F0A5
:100AC000806280937A0008958F7DFBCFE4E6F0E0AA
:100AD00080818E7F8083EAE78081806880830895AB
:100AE00080917A00806480937A0080917A0086FDFC
:100AF000FCCF9FB7F89480917800209179009FBF38
:100B0000922F0895E4E6F0E090819F7D908314BCDD
:100B100015BC16BC94B59C7F94BD94B5982B94BD20
:100B200095B5977F95BD95B5892B85BD85B5887F92
:100B3000862B85BD609394010895E4E6F0E09081F2
:100B4000977F9083A0E8B0E01C92E1E810821092B9
:100B500082009FB7F89410928500109284009FBF86
:100B60009C919C7F9C939C91982B9C939081977EC9
:100B700090839081892B80838081887F808380818E
:100B8000862B808360938A010895E6EBF0E09081E4
:100B90009F7990839081892B80830895CF93C62F6E
:100BA000909164009F7B909364001092B00010922B
:100BB000B1001092B2009091B0009C7F9093B00071
:100BC0009091B000982B9093B0009091B100977FD6
:100BD0009093B1009091B100982B9093B1009091B7
:100BE000B600907621F08091B60080FDFCCF842F76
:100BF0000E94C5058091B100887F8093B1008091EB
:100C0000B1008C2B8093B1008091B600807621F0EA
:100C10008091B60080FDFCCFC0938301CF910895F1
:100C2000CDB7DEB72A970FB6F894DEBF0FBECDBFA3
:100C30008FB7F89490E890936100109261008FBF95
:100C40008FE39CE90197F1F700C0000080916400F8
:100C50008D7F809364008091C2008F738093C20067
:100C60008091C2008093C2008091C2008E7F8093E9
:100C7000C200809164008D7F8093640060E875E21B
:100C800080E090E00E9430048091C20086608093F2
:100C9000C2008091C1008B7F8093C1008091C2000F
:100CA0008F7C8093C2008091C2008093C2008091AB
:100CB000C200877F8093C2008AEE93E08093750222
:100CC000909376028091C10080688093C1007894EF
:100CD00084EC93E080937102909372028091C10042
:100CE00080628093C10078948091C100806180937C
:100CF000C1008091C100877F8093C1008EE191E0A7
:100D0000809377029093780280E2F82EF0920601A9
:100D100088E4809305018FB7F894A89518E11093A3
:100D2000600098E2909360008FBF88E40E942104E5
:100D300078949FB7F894A89584B7877F84BF109361
:100D40006000109260009FBF2998219A61E08BE0BB
:100D50000E9482055D98559A5E98569A84B58F7365
:100D600084BD84B5806484BD84B58F7C84BD84B526
:100D7000806284BD88EC87BD18BC8091BC0080680F
:100D80008093BC0065E083E00E9482058FE787BD09
:100D900084B58F7384BD84B5806884BD5E98569A8F
:100DA00003E710E0009397011093980182E080938D
:100DB000930190916E00926090936E0080939301E6
:100DC00090916E009D7F90936E008093930110929E
:100DD00097011092980190916E009D7F90936E0004
:100DE0008093930180916E00876080936E0087E00E
:100DF0008093930161E08BE00E949D0580918000CB
:100E00008F73809380008091800080688093800041
:100E10002998219A009391011093920180916F007B
:100E2000816080936F008091810080648093810055
:100E30008091810080688093810040E062E083E0DF
:100E40000E94CE05F092B3008091B600807621F02A
:100E50008091B60083FDFCCF8091B0008F738093AA
:100E6000B0008091B00080688093B0002B98239AE6
:100E70008091B0008F7C8093B0008091B00080930F
:100E8000B0002D98259A1092990110929A01109213
:100E9000970110929801109295011092960187E0A7
:100EA00080939301109291011092920110928F0100
:100EB0001092900110928D0110928E0180916F001E
:100EC000887D80936F0010928801109289011092A2
:100ED0008601109287011092840110928501809101
:100EE0007000887F8093700088E00E941D050E943A
:100EF000660587E00E943C0580EC0E9447058091D2
:100F00007C008F7D80937C0003E710E000939D01BF
:100F100010939E0180917A00886080937A0080917E
:100F20007B00887F80937B0080917B008260809330
:100F30007B0080917A00806280937A0088E00E9432
:100F40001D050E94660587E00E943C0580EC0E941A
:100F5000470580917C008F7D80937C0000939D01EC
:100F600010939E0180917A00886080937A0080912E
:100F70007B00887F80937B0080917B0080937B0047
:100F800080917A00806280937A0080917B00887FD4
:100F900080937B0080917B0080937B0080917A001E
:100FA000806280937A0088E00E941D0580EC0E9498
:100FB000470587E00E943C0580B78C7F80BF80B7E3
:100FC000836080BF8EE191E08093810190938201E4
:100FD00080B7886080BF80B78C7F80BF80B7826019
:100FE00080BF009381011093820180B7886080BF29
:100FF00080917F00816080937F0080917A008F775D
:1010000080937A0080917B00806480937B00809144
:101010007C00807F80937C0080917C0080937C00AA
:1010200080B78F7B80BF90B780B7877F80BF80B746
:101030008F7780BF93FF03C080B7886080BF0000B8
:101040002C9824982B98239A2D98259A2A98229A9E
:101050008DB58E7F8DBD8CB58C7F8CBD8CB5806140
:101060008CBD8CB5837F8CBD8CB58CBD0E94140566
:1010700083E790E08093E7019093E8018CB5806866
:101080008CBD0E9414051EBC0DB407FEFDCF8EB5AD
:1010900083E790E080939B0190939C018091BC003A
:1010A00081608093BC008091BA0081608093BA0017
:1010B0008091BC008F7B8093BC008091BC008062DB
:1010C0008093BC008091BC008F7E8093BC00109206
:1010D0009B0110929C018091BC008E7F8093BC008C
:1010E00000E010E00E9470054AE0BE016F5F7F4F94
:1010F0000E94150ABE016F5F7F4F80E091E00E9461
:10110000CC0462E075E00E9476009FEF23EC89E05A
:10111000915020408040E1F700C0000082E0800F45
:101120000F5F1F4F87BD9FB7F894109389000093FE
:1011300088009FBF88BDD6CFCF93DF9300D000D06B
:101140000F92CDB7DEB780917901898380917A01C2
:101150008A8380917B018B8380917C018C83809139
:101160007D018D83B0917E01F0917F01E09180013E
:1011700029813A814B815C81682F7B2F8F2F9E2F95
:10118000A1E00E94E8092093790130937A0140930D
:101190007B0150937C0160937D0170937E0180936D
:1011A0007F019093800129813A814B815C816D811F
:1011B0007B2F8F2F9E2FA0E00E94F40941F4109204
:1011C0006E0210926D021092700210926F02809166
:1011D00071018983809172018A83809173018B836D
:1011E000809174018C83809175018D83B09176011B
:1011F000F0917701E091780129813A814B815C81FE
:10120000682F7B2F8F2F9E2FA1E00E94E80920934B
:101210007101309372014093730150937401609394
:1012200075017093760180937701909378012981FD
:101230003A814B815C816D817B2F8F2F9E2FA0E0A7
:101240000E94F40941F410922A021092290210928D
:101250002C0210922B0280916901898380916A018E
:101260008A8380916B018B8380916C018C83809148
:101270006D018D83B0916E01F0916F01E09170016D
:1012800029813A814B815C81682F7B2F8F2F9E2F84
:10129000A1E00E94E8092093690130936A0140931C
:1012A0006B0150936C0160936D0170936E0180939C
:1012B0006F019093700129813A814B815C816D812E
:1012C0007B2F8F2F9E2FA0E00E94F40941F41092F3
:1012D000E4011092E3011092E6011092E501809181
:1012E00061018983809162018A83809163018B838C
:1012F000809164018C83809165018D83B09166013A
:10130000F0916701E091680129813A814B815C810C
:10131000682F7B2F8F2F9E2FA1E00E94E80920933A
:1013200061013093620140936301509364016093C3
:10133000650170936601809367019093680129812C
:101340003A814B815C816D817B2F8F2F9E2FA0E096
:101350000E94F40941F41092C0011092BF01109252
:10136000C2011092C1010F900F900F900F900F903B
:10137000DF91CF910895A1E21A2EAA1BBB1BFD019C
:101380000DC0AA1FBB1FEE1FFF1FA217B307E40764
:10139000F50720F0A21BB30BE40BF50B661F771FBC
:1013A000881F991F1A9469F760957095809590959C
:1013B0009B01AC01BD01CF0108950E94000AA59FC9
:1013C000900DB49F900DA49F800D911D1124089540
:1013D0000024A7FD00942A0F301D401D501D601DE4
:1013E000701D801D901D08950024A7FD00942A17EC
:1013F000300540055005600570058005900508958D
:10140000A29FB001B39FC001A39F700D811D112445
:10141000911DB29F700D811D1124911D0895EE0F35
:10142000FF1F0590F491E02D0994BB274A3031F459
:10143000992322F4BDE2909581959F4F0C94210A47
:10144000BB27FB015527AA27880F991FAA1FA4179E
:1014500010F0A41B83955051B9F7A05DAA3308F092
:10146000A95DA193009779F7B111B1931192CB01C6
:101470000C943A0ADC01FC01672F71917723E1F7A4
:10148000329704C07C916D9370836291AE17BF0751
:08149000C8F30895F894FFCFA2
:10149800028025000008210D0A0057617463686402
:1014A8006F6754696D657220646964206E6F74207B
:1014B80073746F7021200047656E65726174696E80
:1014C800672073797374656D2072657365742E2E49
:1014D8002E0053797374656D20726573657420648A
:0C14E800697361626C65642E2E2E00009A
:00000001FF
