:100000000C9435000C945D000C945D000C945D0024
:100010000C945D000C945D000C94D7000C94480384
:100020000C9471030C941F030C94F6020C94A4021C
:100030000C94CD020C947B020C9429020C94520275
:100040000C9400020C945D000C942B010C940201A2
:100050000C9454010C94D7010C945D000C945D0039
:100060000C945D000C945D00240711241FBECFEF9B
:10007000D8E0DEBFCDBF11E0A0E0B1E0E8E9F0E1FB
:1000800002C005900D92AC35B107D9F722E0ACE57E
:10009000B1E001C01D92A931B207E1F710E0C5E35C
:1000A000D0E004C02197FE010E940F08C433D1079D
:1000B000C9F70E9491050C944A080C9400008091A5
:1000C0005D0190915E01A0915F01B0916001019688
:1000D000A11DB11D80935D0190935E01A0935F010E
:1000E000B0936001089580E283B90895FB010994FB
:1000F000FC016083718342830895DC016130F9F073
:10010000623009F44EC0611571F1089594E0899F41
:1001100090011124ED91FD911297E20FF31F3181AF
:100120009381292F2095232321832081922B908353
:100130008F5F12969C911297891740F3089580E083
:10014000F8CF24E0629FC0011124ED91FD91129738
:10015000E80FF91F91818381809598239183908185
:10016000892380836F5F12968C911297681748F3EA
:10017000089594E0899F90011124ED91FD911297CB
:10018000E20FF31F20819381909529232083218101
:10019000922391838F5F12969C911297891748F34F
:1001A000089580E0F8CF08950895089508951F9266
:1001B0000F920FB60F9211242F933F934F935F939B
:1001C0006F937F938F939F93AF93BF93EF93FF931F
:1001D000E0911602F0911702309709F00995FF910E
:1001E000EF91BF91AF919F918F917F916F915F91AF
:1001F0004F913F912F910F900FBE0F901F90189528
:10020000089508951F920F920FB60F9211242F9305
:100210003F934F935F936F937F938F939F93AF938E
:10022000BF93EF93FF93E0911202F0911302309786
:1002300009F00995FF91EF91BF91AF919F918F9137
:100240007F916F915F914F913F912F910F900FBED2
:100250000F901F9018951F920F920FB60F921124B6
:100260002F933F934F935F936F937F938F939F93BE
:10027000AF93BF93EF93FF93E0911402F0911502B7
:10028000309709F00995FF91EF91BF91AF919F9140
:100290008F917F916F915F914F913F912F910F902F
:1002A0000FBE0F901F9018951895CF93DF93CDB781
:1002B000DEB766970FB6F894DEBF0FBECDBF80E203
:1002C00083B96AE071E080E091E00E94B9048D8B0F
:1002D0009E8B80915C0191E0980F90935C014AE0C5
:1002E000BE016F5F7F4F90E00E941508BE016F5FF7
:1002F0007F4F8D899E890E94B9046FEE74E00E9441
:10030000760080915C018B3070F088E40E940E04CE
:1003100010925C0166960FB6F894DEBF0FBECDBF9B
:10032000DF91CF91089580911802803451F067E2F7
:1003300071E080E091E00E94B9046FEE74E00E94E9
:1003400076002FEF89EF90E0215080409040E1F758
:1003500000C0000080E40E940E0462E471E080E0CE
:1003600091E00E94B9046FEE74E00E9476006FEE97
:1003700074E080E091E00E94760080E283B9CACF09
:1003800080E00E94150582E00E94150587E00E942A
:10039000150585E00E940A0588E00E94010580E0BD
:1003A0000E94150580917C0087E00C9401051F9246
:1003B0000F920FB60F9211242F933F934F935F9399
:1003C0006F937F938F939F93AF93BF93EF93FF931D
:1003D000E0918801F0918901309709F00995FF912A
:1003E000EF91BF91AF919F918F917F916F915F91AD
:1003F0004F913F912F910F900FBE0F901F90189526
:100400001F920F920FB60F9211242F933F934F9389
:100410005F936F937F938F939F93AF93BF93EF936C
:10042000FF93E0918601F0918701309709F00995DB
:10043000FF91EF91BF91AF919F918F917F916F91BC
:100440005F914F913F912F910F900FBE0F901F9092
:1004500018951F920F920FB60F9211242F933F936E
:100460004F935F936F937F938F939F93AF93BF93BC
:10047000EF93FF93E0918401F0918501309709F0AB
:100480000995FF91EF91BF91AF919F918F917F91CE
:100490006F915F914F913F912F910F900FBE0F90F1
:1004A0001F9018951F920F920FB60F9211242F9341
:1004B0003F934F935F936F937F938F939F93AF93EC
:1004C000BF93EF93FF93E0918201F0918301309706
:1004D00009F00995FF91EF91BF91AF919F918F9195
:1004E0007F916F915F914F913F912F910F900FBE30
:1004F0000F901F9018951F920F920FB60F92112414
:100500002F933F934F935F936F937F938F939F931B
:10051000AF93BF93EF93FF93E0917F01F091800140
:10052000309709F00995FF91EF91BF91AF919F919D
:100530008F917F916F915F914F913F912F910F908C
:100540000FBE0F901F9018951F920F920FB60F922B
:1005500011242F933F934F935F936F937F938F93C8
:100560009F93AF93BF93EF93FF93E0917D01F09141
:100570007E01309709F00995FF91EF91BF91AF91FE
:100580009F918F917F916F915F914F913F912F91AB
:100590000F900FBE0F901F9018951F920F920FB6DD
:1005A0000F9211242F933F934F935F936F937F93F9
:1005B0008F939F93AF93BF93EF93FF93E0917B0152
:1005C000F0917C01309709F00995FF91EF91BF916F
:1005D000AF919F918F917F916F915F914F913F91DB
:1005E0002F910F900FBE0F901F9018951F920F9292
:1005F0000FB60F9211242F933F934F935F936F93F6
:100600007F938F939F93AF93BF93EF93FF93E0916B
:100610007901F0917A01309709F00995FF91EF91F6
:10062000BF91AF919F918F917F916F915F914F910A
:100630003F912F910F900FBE0F901F9018951F9212
:100640000F920FB60F9211242F933F934F935F9306
:100650006F937F938F939F93AF93BF93EF93FF938A
:10066000E0917601F0917701309709F00995FF91BB
:10067000EF91BF91AF919F918F917F916F915F911A
:100680004F913F912F910F900FBE0F901F90189593
:100690001F920F920FB60F9211242F933F934F93F7
:1006A0005F936F937F938F939F93AF93BF93EF93DA
:1006B000FF93E0917401F0917501309709F009956D
:1006C000FF91EF91BF91AF919F918F917F916F912A
:1006D0005F914F913F912F910F900FBE0F901F9000
:1006E00018951F920F920FB60F9211242F933F93DC
:1006F0004F935F936F937F938F939F93AF93BF932A
:10070000EF93FF93E0917201F0917301309709F03C
:100710000995FF91EF91BF91AF919F918F917F913B
:100720006F915F914F913F912F910F900FBE0F905E
:100730001F90189540E661E080E00E944F058FE52C
:1007400090E08093760190937701E0E7F0E080817C
:100750008160808380E00E9446052F98279A2F9A17
:100760000895CF93DF930F92CDB7DEB78091CA0182
:100770009091CB012091CC013091CD0183958F7365
:1007800090E082179307F9F02091C6008091CA018A
:100790009091CB0183958F7390E04091CC01509163
:1007A000CD018417950759F0E091CA01F091CB0172
:1007B000E657FE4F20839093CB018093CA010F90A0
:1007C000DF91CF9108958091C60089838981F7CF09
:1007D00020910E0230910F0280911002909111022F
:1007E0002817390731F48091C1008F7D8093C100B3
:1007F0000895E0911002F0911102E253FE4F208122
:10080000809110029091110283958F7390E09093E4
:100810001102809310022093C6000895809318025D
:10082000E0E6F0E090812FB7F894A89538E13083A6
:100830009772892B80832FBF0895CF92DF92EF921A
:10084000FF920F931F93CF93DF9300D000D0CDB7CB
:10085000DEB76B017C011092C5001092C40060935A
:100860000101D092020180930301F0920401809172
:1008700061008F7040E054E264EF70E09B018A01F8
:1008800004C036952795179507958A95D2F7098361
:100890001A832B833C838091C20086FD63C0807CD9
:1008A000D1F5B801C9019601A701E4E0220F331F79
:1008B000441F551FEA95D1F70E94BB072295329538
:1008C000307F3227207F322740E050E069817A81F3
:1008D0008B819C810E94BB07A4E6B0E00E94DD07EB
:1008E0009601A7010E94BB07245631091AF43195DD
:1008F000219531092430310574F18091C4008111B2
:1009000009C08091C500811105C08091C00082603E
:100910008093C000A8E0B0E09601A7010E94DD0727
:100920009B01AC0169817A818B819C810E94BB070C
:10093000215031093093C5002093C4000F900F90CF
:100940000F900F90DF91CF911F910F91FF90EF903B
:10095000DF90CF9008958091C0008D7F8093C0007C
:10096000A0E1D9CF8091C0008D7F8093C000A2E02C
:10097000D2CFAC01FB018081811102C0CA01089570
:10098000319620910E0230910F0260911002709109
:10099000110223952F7330E02617370791F320912A
:1009A0000E0230910F0223952F7330E060911002F8
:1009B000709111022617370759F0A0910E02B091DD
:1009C0000F02A253BE4F8C9330930F0220930E025E
:1009D0009091C10090629093C1007894CCCFCF9356
:1009E000DF9300D0CDB7DEB789839A8367E071E0EB
:1009F0000E94B90489819A810F900F90DF91CF9165
:100A00000895ECE7F0E09081907F90839081892BAE
:100A10008083089590916100EAE7F0E09081987FEB
:100A200090839081892B80830895EBE7F0E090819B
:100A3000987F90839081892B80830895E4E6F0E08D
:100A40009081977F9083A0E8B0E01C92E1E810824B
:100A5000109282009FB7F894109285001092840043
:100A60009FBF9C919C7F9C939C91982B9C93908181
:100A7000977E90839081892B80838081887F80837B
:100A80008081862B8083609378010895E6EBF0E007
:100A900090819F7990839081892B80830895CF9353
:100AA000C62F909164009F7B909364001092B000D9
:100AB0001092B1001092B2009091B0009C7F909380
:100AC000B0009091B000982B9093B0009091B1003D
:100AD000977F9093B1009091B100982B9093B100C3
:100AE0009091B600907621F08091B60080FDFCCF09
:100AF000842F0E9446058091B100887F8093B100C9
:100B00008091B1008C2B8093B1008091B6008076EB
:100B100021F08091B60080FDFCCFC0937101CF9190
:100B20000895CDB7DEB72A970FB6F894DEBF0FBE93
:100B3000CDBF8FB7F89490E8909361001092610058
:100B40008FBF8FE39CE90197F1F700C0000080910F
:100B500064008D7F809364008091C2008F738093C6
:100B6000C2008091C2008093C2008091C2008E7F3B
:100B70008093C200809164008D7F8093640060E860
:100B800075E280E090E00E941D048091C2008660C2
:100B90008093C2008091C1008B7F8093C1008091BF
:100BA000C2008F7C8093C2008091C2008093C200FB
:100BB0008091C200877F8093C20081EB93E0809395
:100BC0001402909315028091C10080688093C10047
:100BD000789488EE93E080931202909313028091B0
:100BE000C10080628093C10078948091C1008061CF
:100BF0008093C1008091C10088608093C10085E529
:100C000091E0809316029093170210E21093060170
:100C100088E4809305018FB7F894A89508E10093C4
:100C2000600098E2909360008FBF88E40E940E04F9
:100C300078949FB7F894A89584B7877F84BF009372
:100C40006000109260009FBF2998219A80916400F3
:100C50008F7D8093640014BC15BC16BC84B58C7F5A
:100C600084BD84B5836084BD85B5877F85BD85B52A
:100C7000836085BD85B5887F856085BD85E080936F
:100C8000810184B58F7384BD84B5806884BD8FE78E
:100C900087BD5E98569A83E790E080938401909395
:100CA000850180916E00826080936E0061E08BE030
:100CB0000E941E05809180008F7380938000809138
:100CC00080008068809380002998219A40E062E04B
:100CD00083E00E944F058091B0008F738093B00035
:100CE0008091B00080688093B0002B98239A109375
:100CF000B3008091B600807621F08091B60083FD2C
:100D0000FCCF8091B0008F7C8093B0008091B000C8
:100D10008093B0002D98259A109286011092870139
:100D20001092840110928501109282011092830129
:100D300080916E00887F80936E0010927F011092E8
:100D4000800110927D0110927E0110927B01109221
:100D50007C0180916F00887D80936F0010927601F6
:100D60001092770110927401109275011092720125
:100D70001092730180917000887F8093700088E0EA
:100D80000E940105809164008E7F809364008091B1
:100D90007A00806880937A0087E00E940A0580913B
:100DA0007C008F7380937C0080917C00806C8093AA
:100DB0007C0080917C008F7D80937C0083E790E0B5
:100DC000809388019093890180917A008860809354
:100DD0007A0000E010E080917A00806480937A00CD
:100DE00080917A0086FDFCCF9FB7F89480917800BF
:100DF000209179009FBF4AE0BE016F5F7F4F922F25
:100E00000E941508BE016F5F7F4F80E091E00E9455
:100E1000B9046FEE74E00E9476009FEF23EC89E046
:100E2000915020408040E1F700C0000082E0800F38
:100E30000F5F1F4F87BD9FB7F894109389000093F1
:100E400088009FBF88BDC7CFCF93DF9300D000D06D
:100E50000F92CDB7DEB780916901898380916A01D5
:100E60008A8380916B018B8380916C018C8380914C
:100E70006D018D83B0916E01F0916F01E091700171
:100E800029813A814B815C81682F7B2F8F2F9E2F88
:100E9000A1E00E94E8072093690130936A01409322
:100EA0006B0150936C0160936D0170936E018093A0
:100EB0006F019093700129813A814B815C816D8132
:100EC0007B2F8F2F9E2FA0E00E94F40741F41092F9
:100ED0000F0210920E0210921102109210028091D5
:100EE00061018983809162018A83809163018B8390
:100EF000809164018C83809165018D83B09166013E
:100F0000F0916701E091680129813A814B815C8110
:100F1000682F7B2F8F2F9E2FA1E00E94E807209340
:100F200061013093620140936301509364016093C7
:100F30006501709366018093670190936801298130
:100F40003A814B815C816D817B2F8F2F9E2FA0E09A
:100F50000E94F40741F41092CB011092CA01109242
:100F6000CD011092CC010F900F900F900F900F9029
:100F7000DF91CF910895A1E21A2EAA1BBB1BFD01A0
:100F80000DC0AA1FBB1FEE1FFF1FA217B307E40768
:100F9000F50720F0A21BB30BE40BF50B661F771FC0
:100FA000881F991F1A9469F76095709580959095A0
:100FB0009B01AC01BD01CF0108950E940008A59FCF
:100FC000900DB49F900DA49F800D911D1124089544
:100FD0000024A7FD00942A0F301D401D501D601DE8
:100FE000701D801D901D08950024A7FD00942A17F0
:100FF0003005400550056005700580059005089591
:10100000A29FB001B39FC001A39F700D811D112449
:10101000911DB29F700D811D1124911D0895EE0F39
:10102000FF1F0590F491E02D0994BB274A3031F45D
:10103000992322F4BDE2909581959F4F0C9421084D
:10104000BB27FB015527AA27880F991FAA1FA417A2
:1010500010F0A41B83955051B9F7A05DAA3308F096
:10106000A95DA193009779F7B111B1931192CB01CA
:101070000C943A08DC01FC01672F71917723E1F7AA
:10108000329704C07C916D9370836291AE17BF0755
:08109000C8F30895F894FFCFA6
:10109800028025000008210D0A0057617463686406
:1010A8006F6754696D657220646964206E6F74207F
:1010B80073746F7021200047656E65726174696E84
:1010C800672073797374656D2072657365742E2E4D
:1010D8002E0053797374656D20726573657420648E
:0C10E800697361626C65642E2E2E00009E
:00000001FF
