:100000000C9435000C945D000C945D000C945D0024
:100010000C945D000C945D000C94D2000C945D0077
:100020000C945D000C945D000C9436020C945F02FD
:100030000C9488020C94B1020C94E4010C940D020F
:100040000C94BB010C945D000C9426010C94FD00F3
:100050000C944F010C945D000C945D000C945D00B9
:100060000C945D000C945D00350511241FBECFEF8C
:10007000D8E0DEBFCDBF11E0A0E0B1E0EAEBFCE0EC
:1000800002C005900D92AC35B107D9F722E0ACE57E
:10009000B1E001C01D92A131B207E1F710E0C5E364
:1000A000D0E004C02197FE010E942006C433D1078E
:1000B000C9F70E9473040C945B060C9400008091B5
:1000C0005D0190915E01A0915F01B0916001019688
:1000D000A11DB11D80935D0190935E01A0935F010E
:1000E000B09360010895FC01608371834283089599
:1000F000DC016130F9F0623009F44EC0611571F134
:10010000089594E0899F90011124ED91FD9112973B
:10011000E20FF31F31819381292F2095232321831F
:100120002081922B90838F5F12969C911297891752
:1001300040F3089580E0F8CF24E0629FC0011124CD
:10014000ED91FD911297E80FF91F918183818095C0
:10015000982391839081892380836F5F12968C917D
:100160001297681748F3089594E0899F900111242D
:10017000ED91FD911297E20FF31F208193819095ED
:10018000292320832181922391838F5F12969C9152
:100190001297891748F3089580E0F8CF08950895DD
:1001A000089508951F920F920FB60F9211242F9366
:1001B0003F934F935F936F937F938F939F93AF93EF
:1001C000BF93EF93FF93E0910E02F0910F023097EF
:1001D00009F00995FF91EF91BF91AF919F918F9198
:1001E0007F916F915F914F913F912F910F900FBE33
:1001F0000F901F901895089508951F920F920FB6B3
:100200000F9211242F933F934F935F936F937F939C
:100210008F939F93AF93BF93EF93FF93E0910A0265
:10022000F0910B02309709F00995FF91EF91BF9182
:10023000AF919F918F917F916F915F914F913F917E
:100240002F910F900FBE0F901F9018951F920F9235
:100250000FB60F9211242F933F934F935F936F9399
:100260007F938F939F93AF93BF93EF93FF93E0910F
:100270000C02F0910D02309709F00995FF91EF9172
:10028000BF91AF919F918F917F916F915F914F91AE
:100290003F912F910F900FBE0F901F9018951895BA
:1002A000CF93DF93CDB7DEB766970FB6F894DEBF76
:1002B0000FBECDBF80E283B967E071E080E091E0DE
:1002C0000E9434048D8B9E8B80915C0191E0980F8D
:1002D00090935C014AE0BE016F5F7F4F90E00E9407
:1002E0002606BE016F5F7F4F8D899E890E94340470
:1002F00064E271E00E94340480915C018B3070F004
:1003000088E40E94890310925C0166960FB6F89407
:10031000DEBF0FBECDBFDF91CF9108958091100257
:10032000803451F067E271E080E091E00E94340493
:1003300064E271E00E9434042FEF89EF90E02150D5
:1003400080409040E1F700C0000080E40E948903F3
:1003500062E471E080E091E00E94340464E271E0C4
:100360000E94340464E271E080E091E00E94340471
:1003700080E283B9CACF1F920F920FB60F92112459
:100380002F933F934F935F936F937F938F939F939D
:10039000AF93BF93EF93FF93E0918001F0918101C0
:1003A000309709F00995FF91EF91BF91AF919F911F
:1003B0008F917F916F915F914F913F912F910F900E
:1003C0000FBE0F901F9018951F920F920FB60F92AD
:1003D00011242F933F934F935F936F937F938F934A
:1003E0009F93AF93BF93EF93FF93E0917E01F091C2
:1003F0007F01309709F00995FF91EF91BF91AF917F
:100400009F918F917F916F915F914F913F912F912C
:100410000F900FBE0F901F9018951F920F920FB65E
:100420000F9211242F933F934F935F936F937F937A
:100430008F939F93AF93BF93EF93FF93E0917C01D2
:10044000F0917D01309709F00995FF91EF91BF91EF
:10045000AF919F918F917F916F915F914F913F915C
:100460002F910F900FBE0F901F9018951F920F9213
:100470000FB60F9211242F933F934F935F936F9377
:100480007F938F939F93AF93BF93EF93FF93E091ED
:100490007401F0917501309709F00995FF91EF9182
:1004A000BF91AF919F918F917F916F915F914F918C
:1004B0003F912F910F900FBE0F901F9018951F9294
:1004C0000F920FB60F9211242F933F934F935F9388
:1004D0006F937F938F939F93AF93BF93EF93FF930C
:1004E000E0917801F0917901309709F00995FF9139
:1004F000EF91BF91AF919F918F917F916F915F919C
:100500004F913F912F910F900FBE0F901F90189514
:100510001F920F920FB60F9211242F933F934F9378
:100520005F936F937F938F939F93AF93BF93EF935B
:10053000FF93E0917601F0917701309709F00995EA
:10054000FF91EF91BF91AF919F918F917F916F91AB
:100550005F914F913F912F910F900FBE0F901F9081
:1005600018951F920F920FB60F9211242F933F935D
:100570004F935F936F937F938F939F93AF93BF93AB
:10058000EF93FF93E0917A01F0917B01309709F0AE
:100590000995FF91EF91BF91AF919F918F917F91BD
:1005A0006F915F914F913F912F910F900FBE0F90E0
:1005B0001F90189581E080937101809164008F7B7A
:1005C000809364001092B0001092B1001092B200BB
:1005D0008091B0008C7F8093B0008091B0008093B8
:1005E000B0008091B100877F8093B1008091B1000D
:1005F0008093B1008091B600807621F08091B600A2
:1006000080FDFCCF80E60E946A048091B100887F63
:100610008093B1008091B10081608093B10080919E
:10062000B600807621F08091B60080FDFCCF81E09D
:10063000809371018FE590E0809372019093730134
:100640008091700081608093700080E00E946A0455
:100650002F98279A2F9A0895CF93DF930F92CDB7B3
:10066000DEB78091C2019091C3012091C401309105
:10067000C50183958F7390E082179307F9F020915D
:10068000C6008091C2019091C30183958F7390E061
:100690004091C4015091C5018417950759F0E0912C
:1006A000C201F091C301EE57FE4F20839093C30126
:1006B0008093C2010F90DF91CF9108958091C60081
:1006C00089838981F7CF20910602309107028091BA
:1006D0000802909109022817390731F48091C1006E
:1006E0008F7D8093C1000895E0910802F091090286
:1006F000EA53FE4F20818091080290910902839570
:100700008F7390E090930902809308022093C600B3
:10071000089580931002E0E6F0E090812FB7F894FE
:10072000A89538E130839772892B80832FBF089575
:10073000CF92DF92EF92FF920F931F93CF93DF93AD
:1007400000D000D0CDB7DEB76B017C011092C500A0
:100750001092C40060930101D092020180930301C2
:10076000F0920401809161008F7040E054E264EFE8
:1007700070E09B018A0104C036952795179507956F
:100780008A95D2F709831A832B833C838091C20018
:1007900086FD63C0807CD1F5B801C9019601A7012F
:1007A000E4E0220F331F441F551FEA95D1F70E9442
:1007B000CC0522953295307F3227207F322740E0CA
:1007C00050E069817A818B819C810E94CC05A4E6EE
:1007D000B0E00E94EE059601A7010E94CC052456C8
:1007E00031091AF43195219531092430310574F11C
:1007F0008091C400811109C08091C500811105C09C
:100800008091C00082608093C000A8E0B0E09601B3
:10081000A7010E94EE059B01AC0169817A818B8161
:100820009C810E94CC05215031093093C500209352
:10083000C4000F900F900F900F90DF91CF911F91F8
:100840000F91FF90EF90DF90CF9008958091C000BE
:100850008D7F8093C000A0E1D9CF8091C0008D7FB3
:100860008093C000A2E0D2CFAC01FB018081811156
:1008700002C0CA0108953196209106023091070204
:10088000609108027091090223952F7330E02617BA
:10089000370791F3209106023091070223952F73B9
:1008A00030E060910802709109022617370759F06D
:1008B000A0910602B0910702AA53BE4F8C933093C9
:1008C0000702209306029091C10090629093C100AC
:1008D0007894CCCFE6EBF0E090819F799083908183
:1008E000892B808308958FB7F89490E890936100E6
:1008F000109261008FBF8FE39CE90197F1F700C070
:100900000000809164008D7F809364008091C2001C
:100910008F738093C2008091C2008093C200809147
:10092000C2008E7F8093C200809164008D7F80938F
:10093000640060E875E280E090E00E949803809196
:10094000C20086608093C2008091C1008B7F80933B
:10095000C1008091C2008F7C8093C2008091C20050
:100960008093C2008091C200877F8093C2008CE296
:1009700093E080930C0290930D028091C1008068F7
:100980008093C100789483E693E080930A02909369
:100990000B028091C10080628093C10078948091A5
:1009A000C10080618093C1008091C1008860809304
:1009B000C10080E591E080930E0290930F0280E2E7
:1009C0008093060188E4809305018FB7F894A89579
:1009D000C8E1C093600098E2909360008FBF88E404
:1009E0000E94890378949FB7F894A89584B7877F6D
:1009F00084BFC0936000109260009FBF2998219A25
:100A0000809164008F7D8093640084B58C7F84BD69
:100A100084B58B6084BD85B5877F85BD85B58B60CA
:100A200085BD85B5887F816085BD5D98559A5E9846
:100A3000569A84B58F73806484BD84B58F7C806240
:100A400084BD88EC87BD18BC80E09FEF23ED30E3C8
:100A5000915020403040E1F700C000008F5F97B513
:100A6000891301C080E088BDF0CFCF93DF9300D021
:100A700000D00F92CDB7DEB7809169018983809154
:100A80006A018A8380916B018B8380916C018C83D6
:100A900080916D018D83B0916E01F0916F01E091B5
:100AA000700129813A814B815C81682F7B2F8F2FC8
:100AB0009E2FA1E00E94F9052093690130936A01FD
:100AC00040936B0150936C0160936D0170936E01C4
:100AD00080936F019093700129813A814B815C81F1
:100AE0006D817B2F8F2F9E2FA0E00E94050641F481
:100AF0001092070210920602109209021092080248
:100B0000809161018983809162018A838091630170
:100B10008B83809164018C83809165018D83B0917A
:100B20006601F0916701E091680129813A814B816A
:100B30005C81682F7B2F8F2F9E2FA1E00E94F905EB
:100B400020936101309362014093630150936401EB
:100B500060936501709366018093670190936801CB
:100B600029813A814B815C816D817B2F8F2F9E2F54
:100B7000A0E00E94050641F41092C3011092C20148
:100B80001092C5011092C4010F900F900F900F901A
:100B90000F90DF91CF910895A1E21A2EAA1BBB1BE3
:100BA000FD010DC0AA1FBB1FEE1FFF1FA217B30739
:100BB000E407F50720F0A21BB30BE40BF50B661F4F
:100BC000771F881F991F1A9469F760957095809513
:100BD00090959B01AC01BD01CF0108950E941106C3
:100BE000A59F900DB49F900DA49F800D911D112481
:100BF00008950024A7FD00942A0F301D401D501DAC
:100C0000601D701D801D901D08950024A7FD009497
:100C10002A173005400550056005700580059005D0
:100C20000895A29FB001B39FC001A39F700D811DC5
:100C30001124911DB29F700D811D1124911D0895E5
:100C4000EE0FFF1F0590F491E02D0994BB274A3069
:100C500031F4992322F4BDE2909581959F4F0C9435
:100C60003206BB27FB015527AA27880F991FAA1F09
:100C7000A41710F0A41B83955051B9F7A05DAA33B7
:100C800008F0A95DA193009779F7B111B193119282
:100C9000CB010C944B06DC01FC01672F719177238B
:100CA000E1F7329704C07C916D9370836291AE1727
:0A0CB000BF07C8F30895F894FFCFC2
:100CBA00028025000008215761746368646F6754D5
:100CCA00696D657220646964206E6F742073746F35
:100CDA00702120000D0A0047656E65726174696EA5
:100CEA00672073797374656D2072657365742E2E2F
:100CFA002E0053797374656D207265736574206470
:0C0D0A00697361626C65642E2E2E00007F
:00000001FF
