:100000000C9434000C9446000C9446000C9446006A
:100010000C9446000C9446000C9446000C94460048
:100020000C9446000C9446000C9446000C94460038
:100030000C9446000C9446000C9446000C94460028
:100040000C9446000C9446000C9446000C94460018
:100050000C9446000C9477000C9446000C944600D7
:100060000C9446000C94460011241FBECFEFD8E03C
:10007000DEBFCDBF21E0A0E0B1E001C01D92A630FF
:10008000B207E1F70E94D2000C9418010C94000012
:100090008BE090E293B92FEF31EE44E021503040F5
:1000A0004040E1F700C000008150A1F70895809121
:1000B0007A00806480937A0080917A0086FDFCCF7C
:1000C0008FB7F89490917800909179008FBF089540
:1000D00085E00E94BF0088E00E94A00080917C0023
:1000E00087E00E94A0000E94C8000C9457001F9255
:1000F0000F920FB60F9211242F933F934F935F935C
:100100006F937F938F939F93AF93BF93EF93FF93DF
:10011000E0910001F0910101309709F00995FF91FC
:10012000EF91BF91AF919F918F917F916F915F916F
:100130004F913F912F910F900FBE0F901F901895E8
:1001400090917A0020E095FF06C090917A009F7D03
:1001500090937A0021E090917C00907F90937C00B6
:1001600090917C00892B80937C0080917A002115EE
:1001700021F0806280937A0008958F7DFBCFEAE7BB
:10018000F0E09081987F90839081892B80830895FF
:10019000E4E6F0E080818E7F8083EAE780818068FA
:1001A0008083089578942D98259A2D9888E00E9450
:1001B000A00080917A0090E085FF06C080917A00CF
:1001C0008F7D80937A0091E080917C008F73809383
:1001D0007C0080917C00806C80937C0080917A0010
:1001E000911521F1806280937A0087E00E94BF0020
:1001F00080917C008F7D80937C000E94C80088E401
:1002000090E0809300019093010180917A008860D2
:1002100080937A000E9457002FEF87EA91E62150E1
:1002200080409040E1F700C00000F4CF8F7DDBCF2D
:04023000F894FFCF70
:00000001FF
