:100000000C9434000C9446000C9446000C9446006A
:100010000C9446000C9446000C9446000C94460048
:100020000C9446000C9446000C9446000C94460038
:100030000C9446000C9446000C9446000C94460028
:100040000C9446000C9446000C9446000C94460018
:100050000C9446000C9457000C9446000C944600F7
:100060000C9446000C94460011241FBECFEFD8E03C
:10007000DEBFCDBF21E0A0E0B1E001C01D92A23003
:10008000B207E1F70E9480000C9400010C9400007C
:100090008BE090E293B92FEF31EE44E021503040F5
:1000A0004040E1F700C000008150A1F708951F9281
:1000B0000F920FB60F9211242F933F934F935F939C
:1000C0006F937F938F939F93AF93BF93EF93FF9320
:1000D000E0910001F0910101309709F00995FF913D
:1000E000EF91BF91AF919F918F917F916F915F91B0
:1000F0004F913F912F910F900FBE0F901F90189529
:1001000078942D98259A2D9880917A0090E085FF1B
:1001100006C080917A008F7D80937A0091E0809173
:100120007C00807F80937C0080917C00886080933D
:100130007C0080917A00911509F45EC08062809302
:100140007A0080917A0090E085FF06C080917A0065
:100150008F7D80937A0091E080917C008F738093F3
:100160007C0080917C00806C80937C0080917A0080
:10017000911509F443C0806280937A0080917A00DF
:10018000887F80937A0080917A00876080937A00DC
:1001900080917C008F7D80937C00809164008E7FB5
:1001A0008093640080917A00806880937A0088E46C
:1001B00090E0809300019093010180917A00886023
:1001C00080937A0080917A00806480937A00809195
:1001D0007A0086FDFCCF8FB7F894909178009091CB
:1001E00079008FBF2FEF87EA91E621508040904041
:1001F000E1F700C00000E6CF8F7DA1CF8F7DBCCF9F
:04020000F894FFCFA0
:00000001FF
