:100000000C9434000C9446000C9446000C9446006A
:100010000C9446000C9446000C9454000C9446003A
:100020000C9446000C9446000C9446000C94460038
:100030000C9446000C9446000C9446000C94460028
:100040000C9446000C9446000C9446000C94460018
:100050000C9446000C9446000C9446000C94460008
:100060000C9446000C94460011241FBECFEFD8E03C
:10007000DEBFCDBF21E0A0E0B1E001C01D92A23003
:10008000B207E1F70E947D000C949F000C940000E1
:1000900080E283B92FEF30E792E02150304090406A
:1000A000E1F700C00000F5CF1F920F920FB60F923C
:1000B00011242F933F934F935F936F937F938F936D
:1000C0009F93AF93BF93EF93FF93E0910001F09163
:1000D0000101309709F00995FF91EF91BF91AF9120
:1000E0009F918F917F916F915F914F913F912F9150
:1000F0000F900FBE0F901F90189578942D98259A09
:100100002D988FB7F894A89598E1909360002EE011
:10011000209360008FBF809160002FB7F894A8955E
:100120009093600087728864809360002FBF88E49A
:1001300090E08093000190930101A895FFCFF8947F
:02014000FFCFEF
:00000001FF
