:100000000C9434000C9451000C9451000C94510049
:100010000C9451000C9451000C945F000C9451000E
:100020000C9451000C9451000C9451000C9451000C
:100030000C9451000C9451000C9451000C945100FC
:100040000C9451000C9451000C9451000C945100EC
:100050000C9451000C9451000C9451000C945100DC
:100060000C9451000C94510011241FBECFEFD8E026
:10007000DEBFCDBF11E0A0E0B1E0E8E6F1E002C0F4
:1000800005900D92A230B107D9F721E0A2E0B1E0CE
:1000900001C01D92A530B207E1F70E9488000C94C0
:1000A000B2000C94000080E283B92FEF30E792E0B9
:1000B000215030409040E1F700C00000F5CF1F9282
:1000C0000F920FB60F9211242F933F934F935F938C
:1000D0006F937F938F939F93AF93BF93EF93FF9310
:1000E000E0910201F0910301309709F00995FF9129
:1000F000EF91BF91AF919F918F917F916F915F91A0
:100100004F913F912F910F900FBE0F901F90189518
:1001100078942D98259A2D9886E08093010188E4A3
:10012000809300012FB7F894A89598E19093600010
:100130003EE0309360002FBF809304018091600007
:100140002FB7F894A8959093600087728864809385
:1001500060002FBF83E590E080930201909303013C
:08016000A895FFCFF894FFCF32
:0201680008216C
:00000001FF
